{
  "contractName": "Streamx",
  "abi": [
    {
      "inputs": [
        {
          "internalType": "uint256",
          "name": "_id",
          "type": "uint256"
        },
        {
          "internalType": "string",
          "name": "_name",
          "type": "string"
        },
        {
          "internalType": "string",
          "name": "_url",
          "type": "string"
        },
        {
          "internalType": "string[]",
          "name": "_images",
          "type": "string[]"
        },
        {
          "internalType": "string[]",
          "name": "_categories",
          "type": "string[]"
        },
        {
          "internalType": "string",
          "name": "_description",
          "type": "string"
        }
      ],
      "stateMutability": "nonpayable",
      "type": "constructor"
    },
    {
      "anonymous": false,
      "inputs": [
        {
          "indexed": true,
          "internalType": "address",
          "name": "owner",
          "type": "address"
        },
        {
          "indexed": true,
          "internalType": "address",
          "name": "approved",
          "type": "address"
        },
        {
          "indexed": true,
          "internalType": "uint256",
          "name": "tokenId",
          "type": "uint256"
        }
      ],
      "name": "Approval",
      "type": "event"
    },
    {
      "anonymous": false,
      "inputs": [
        {
          "indexed": true,
          "internalType": "address",
          "name": "owner",
          "type": "address"
        },
        {
          "indexed": true,
          "internalType": "address",
          "name": "operator",
          "type": "address"
        },
        {
          "indexed": false,
          "internalType": "bool",
          "name": "approved",
          "type": "bool"
        }
      ],
      "name": "ApprovalForAll",
      "type": "event"
    },
    {
      "anonymous": false,
      "inputs": [
        {
          "indexed": true,
          "internalType": "address",
          "name": "previousOwner",
          "type": "address"
        },
        {
          "indexed": true,
          "internalType": "address",
          "name": "newOwner",
          "type": "address"
        }
      ],
      "name": "OwnershipTransferred",
      "type": "event"
    },
    {
      "anonymous": false,
      "inputs": [
        {
          "indexed": true,
          "internalType": "address",
          "name": "from",
          "type": "address"
        },
        {
          "indexed": true,
          "internalType": "address",
          "name": "to",
          "type": "address"
        },
        {
          "indexed": true,
          "internalType": "uint256",
          "name": "tokenId",
          "type": "uint256"
        }
      ],
      "name": "Transfer",
      "type": "event"
    },
    {
      "inputs": [
        {
          "internalType": "address",
          "name": "to",
          "type": "address"
        },
        {
          "internalType": "uint256",
          "name": "tokenId",
          "type": "uint256"
        }
      ],
      "name": "approve",
      "outputs": [],
      "stateMutability": "nonpayable",
      "type": "function"
    },
    {
      "inputs": [
        {
          "internalType": "address",
          "name": "owner",
          "type": "address"
        }
      ],
      "name": "balanceOf",
      "outputs": [
        {
          "internalType": "uint256",
          "name": "",
          "type": "uint256"
        }
      ],
      "stateMutability": "view",
      "type": "function"
    },
    {
      "inputs": [
        {
          "internalType": "uint256",
          "name": "",
          "type": "uint256"
        }
      ],
      "name": "categories",
      "outputs": [
        {
          "internalType": "string",
          "name": "",
          "type": "string"
        }
      ],
      "stateMutability": "view",
      "type": "function"
    },
    {
      "inputs": [],
      "name": "description",
      "outputs": [
        {
          "internalType": "string",
          "name": "",
          "type": "string"
        }
      ],
      "stateMutability": "view",
      "type": "function"
    },
    {
      "inputs": [
        {
          "internalType": "uint256",
          "name": "tokenId",
          "type": "uint256"
        }
      ],
      "name": "getApproved",
      "outputs": [
        {
          "internalType": "address",
          "name": "",
          "type": "address"
        }
      ],
      "stateMutability": "view",
      "type": "function"
    },
    {
      "inputs": [],
      "name": "id",
      "outputs": [
        {
          "internalType": "uint256",
          "name": "",
          "type": "uint256"
        }
      ],
      "stateMutability": "view",
      "type": "function"
    },
    {
      "inputs": [
        {
          "internalType": "uint256",
          "name": "",
          "type": "uint256"
        }
      ],
      "name": "images",
      "outputs": [
        {
          "internalType": "string",
          "name": "",
          "type": "string"
        }
      ],
      "stateMutability": "view",
      "type": "function"
    },
    {
      "inputs": [
        {
          "internalType": "address",
          "name": "owner",
          "type": "address"
        },
        {
          "internalType": "address",
          "name": "operator",
          "type": "address"
        }
      ],
      "name": "isApprovedForAll",
      "outputs": [
        {
          "internalType": "bool",
          "name": "",
          "type": "bool"
        }
      ],
      "stateMutability": "view",
      "type": "function"
    },
    {
      "inputs": [],
      "name": "name",
      "outputs": [
        {
          "internalType": "string",
          "name": "",
          "type": "string"
        }
      ],
      "stateMutability": "view",
      "type": "function"
    },
    {
      "inputs": [],
      "name": "owner",
      "outputs": [
        {
          "internalType": "address",
          "name": "",
          "type": "address"
        }
      ],
      "stateMutability": "view",
      "type": "function"
    },
    {
      "inputs": [
        {
          "internalType": "uint256",
          "name": "tokenId",
          "type": "uint256"
        }
      ],
      "name": "ownerOf",
      "outputs": [
        {
          "internalType": "address",
          "name": "",
          "type": "address"
        }
      ],
      "stateMutability": "view",
      "type": "function"
    },
    {
      "inputs": [],
      "name": "renounceOwnership",
      "outputs": [],
      "stateMutability": "nonpayable",
      "type": "function"
    },
    {
      "inputs": [
        {
          "internalType": "address",
          "name": "from",
          "type": "address"
        },
        {
          "internalType": "address",
          "name": "to",
          "type": "address"
        },
        {
          "internalType": "uint256",
          "name": "tokenId",
          "type": "uint256"
        }
      ],
      "name": "safeTransferFrom",
      "outputs": [],
      "stateMutability": "nonpayable",
      "type": "function"
    },
    {
      "inputs": [
        {
          "internalType": "address",
          "name": "from",
          "type": "address"
        },
        {
          "internalType": "address",
          "name": "to",
          "type": "address"
        },
        {
          "internalType": "uint256",
          "name": "tokenId",
          "type": "uint256"
        },
        {
          "internalType": "bytes",
          "name": "data",
          "type": "bytes"
        }
      ],
      "name": "safeTransferFrom",
      "outputs": [],
      "stateMutability": "nonpayable",
      "type": "function"
    },
    {
      "inputs": [
        {
          "internalType": "address",
          "name": "operator",
          "type": "address"
        },
        {
          "internalType": "bool",
          "name": "approved",
          "type": "bool"
        }
      ],
      "name": "setApprovalForAll",
      "outputs": [],
      "stateMutability": "nonpayable",
      "type": "function"
    },
    {
      "inputs": [],
      "name": "streamUri",
      "outputs": [
        {
          "internalType": "string",
          "name": "",
          "type": "string"
        }
      ],
      "stateMutability": "view",
      "type": "function"
    },
    {
      "inputs": [],
      "name": "streamdesc",
      "outputs": [
        {
          "internalType": "string",
          "name": "",
          "type": "string"
        }
      ],
      "stateMutability": "view",
      "type": "function"
    },
    {
      "inputs": [],
      "name": "streamername",
      "outputs": [
        {
          "internalType": "string",
          "name": "",
          "type": "string"
        }
      ],
      "stateMutability": "view",
      "type": "function"
    },
    {
      "inputs": [],
      "name": "streamstatus",
      "outputs": [
        {
          "internalType": "bool",
          "name": "",
          "type": "bool"
        }
      ],
      "stateMutability": "view",
      "type": "function"
    },
    {
      "inputs": [
        {
          "internalType": "bytes4",
          "name": "interfaceId",
          "type": "bytes4"
        }
      ],
      "name": "supportsInterface",
      "outputs": [
        {
          "internalType": "bool",
          "name": "",
          "type": "bool"
        }
      ],
      "stateMutability": "view",
      "type": "function"
    },
    {
      "inputs": [],
      "name": "symbol",
      "outputs": [
        {
          "internalType": "string",
          "name": "",
          "type": "string"
        }
      ],
      "stateMutability": "view",
      "type": "function"
    },
    {
      "inputs": [
        {
          "internalType": "address",
          "name": "from",
          "type": "address"
        },
        {
          "internalType": "address",
          "name": "to",
          "type": "address"
        },
        {
          "internalType": "uint256",
          "name": "tokenId",
          "type": "uint256"
        }
      ],
      "name": "transferFrom",
      "outputs": [],
      "stateMutability": "nonpayable",
      "type": "function"
    },
    {
      "inputs": [
        {
          "internalType": "address",
          "name": "newOwner",
          "type": "address"
        }
      ],
      "name": "transferOwnership",
      "outputs": [],
      "stateMutability": "nonpayable",
      "type": "function"
    },
    {
      "inputs": [],
      "name": "url",
      "outputs": [
        {
          "internalType": "string",
          "name": "",
          "type": "string"
        }
      ],
      "stateMutability": "view",
      "type": "function"
    },
    {
      "inputs": [
        {
          "internalType": "address",
          "name": "to",
          "type": "address"
        },
        {
          "internalType": "string",
          "name": "uri",
          "type": "string"
        }
      ],
      "name": "safeMint",
      "outputs": [],
      "stateMutability": "nonpayable",
      "type": "function"
    },
    {
      "inputs": [
        {
          "internalType": "bool",
          "name": "update",
          "type": "bool"
        },
        {
          "internalType": "string",
          "name": "streamuri",
          "type": "string"
        },
        {
          "internalType": "string",
          "name": "streamdescs",
          "type": "string"
        }
      ],
      "name": "streamURIupdate",
      "outputs": [],
      "stateMutability": "nonpayable",
      "type": "function"
    },
    {
      "inputs": [
        {
          "internalType": "uint256",
          "name": "tokenId",
          "type": "uint256"
        }
      ],
      "name": "tokenURI",
      "outputs": [
        {
          "internalType": "string",
          "name": "",
          "type": "string"
        }
      ],
      "stateMutability": "view",
      "type": "function"
    },
    {
      "inputs": [],
      "name": "getImageUrls",
      "outputs": [
        {
          "internalType": "string[]",
          "name": "",
          "type": "string[]"
        }
      ],
      "stateMutability": "view",
      "type": "function"
    },
    {
      "inputs": [],
      "name": "getCategories",
      "outputs": [
        {
          "internalType": "string[]",
          "name": "",
          "type": "string[]"
        }
      ],
      "stateMutability": "view",
      "type": "function"
    }
  ],
  "bytecode": "0x60806040523480156200001157600080fd5b50604051620041c7380380620041c7833981810160405281019062000037919062000536565b846040518060400160405280600381526020017f53545800000000000000000000000000000000000000000000000000000000008152508160009080519060200190620000869291906200024d565b5080600190805190602001906200009f9291906200024d565b505050620000d4620000bf6200017f640100000000026401000000009004565b62000187640100000000026401000000009004565b8560098190555084600a9080519060200190620000f39291906200024d565b5083600b90805190602001906200010c9291906200024d565b5082600c908051906020019062000125929190620002de565b5081600d90805190602001906200013e929190620002de565b5080600e9080519060200190620001579291906200024d565b506000601060006101000a81548160ff02191690831515021790555050505050505062000849565b600033905090565b6000600760009054906101000a900473ffffffffffffffffffffffffffffffffffffffff16905081600760006101000a81548173ffffffffffffffffffffffffffffffffffffffff021916908373ffffffffffffffffffffffffffffffffffffffff1602179055508173ffffffffffffffffffffffffffffffffffffffff168173ffffffffffffffffffffffffffffffffffffffff167f8be0079c531659141344cd1fd0a4f28419497f9722a3daafe3b4186f6b6457e060405160405180910390a35050565b8280546200025b906200073b565b90600052602060002090601f0160209004810192826200027f5760008555620002cb565b82601f106200029a57805160ff1916838001178555620002cb565b82800160010185558215620002cb579182015b82811115620002ca578251825591602001919060010190620002ad565b5b509050620002da919062000345565b5090565b82805482825590600052602060002090810192821562000332579160200282015b8281111562000331578251829080519060200190620003209291906200024d565b5091602001919060010190620002ff565b5b50905062000341919062000364565b5090565b5b808211156200036057600081600090555060010162000346565b5090565b5b808211156200038857600081816200037e91906200038c565b5060010162000365565b5090565b5080546200039a906200073b565b6000825580601f10620003ae5750620003cf565b601f016020900490600052602060002090810190620003ce919062000345565b5b50565b6000620003e9620003e38462000696565b6200066d565b905080838252602082019050828560208602820111156200040f576200040e6200080a565b5b60005b858110156200046457815167ffffffffffffffff81111562000439576200043862000805565b5b808601620004488982620004ec565b8552602085019450602084019350505060018101905062000412565b5050509392505050565b6000620004856200047f84620006c5565b6200066d565b905082815260208101848484011115620004a457620004a36200080f565b5b620004b184828562000705565b509392505050565b600082601f830112620004d157620004d062000805565b5b8151620004e3848260208601620003d2565b91505092915050565b600082601f83011262000504576200050362000805565b5b8151620005168482602086016200046e565b91505092915050565b60008151905062000530816200082f565b92915050565b60008060008060008060c0878903121562000556576200055562000819565b5b60006200056689828a016200051f565b965050602087015167ffffffffffffffff8111156200058a576200058962000814565b5b6200059889828a01620004ec565b955050604087015167ffffffffffffffff811115620005bc57620005bb62000814565b5b620005ca89828a01620004ec565b945050606087015167ffffffffffffffff811115620005ee57620005ed62000814565b5b620005fc89828a01620004b9565b935050608087015167ffffffffffffffff81111562000620576200061f62000814565b5b6200062e89828a01620004b9565b92505060a087015167ffffffffffffffff81111562000652576200065162000814565b5b6200066089828a01620004ec565b9150509295509295509295565b6000620006796200068c565b905062000687828262000771565b919050565b6000604051905090565b600067ffffffffffffffff821115620006b457620006b3620007d6565b5b602082029050602081019050919050565b600067ffffffffffffffff821115620006e357620006e2620007d6565b5b620006ee826200081e565b9050602081019050919050565b6000819050919050565b60005b838110156200072557808201518184015260208101905062000708565b8381111562000735576000848401525b50505050565b600060028204905060018216806200075457607f821691505b602082108114156200076b576200076a620007a7565b5b50919050565b6200077c826200081e565b810181811067ffffffffffffffff821117156200079e576200079d620007d6565b5b80604052505050565b7f4e487b7100000000000000000000000000000000000000000000000000000000600052602260045260246000fd5b7f4e487b7100000000000000000000000000000000000000000000000000000000600052604160045260246000fd5b600080fd5b600080fd5b600080fd5b600080fd5b600080fd5b6000601f19601f8301169050919050565b6200083a81620006fb565b81146200084657600080fd5b50565b61396e80620008596000396000f3fe608060405234801561001057600080fd5b50600436106101ec576000357c0100000000000000000000000000000000000000000000000000000000900480637284e41611610121578063b88d4fde116100bf578063d32141811161008e578063d32141811461053b578063e985e9c514610559578063eb477b1614610589578063f2fde38b146105a7576101ec565b8063b88d4fde146104a3578063c6cdbe5e146104bf578063c87b56dd146104ef578063d204c45e1461051f576101ec565b80638da5cb5b116100fb5780638da5cb5b1461042d57806395d89b411461044b578063a22cb46514610469578063af640d0f14610485576101ec565b80637284e416146103c157806384856482146103df5780638cc4260b1461040f576101ec565b806342842e0e1161018e5780635600f04f116101685780635600f04f146103395780636352211e1461035757806370a0823114610387578063715018a6146103b7576101ec565b806342842e0e146102e357806349217fb0146102ff5780634db0412c1461031b576101ec565b8063095ea7b3116101ca578063095ea7b31461026f5780631868611b1461028b578063212f3a04146102a957806323b872dd146102c7576101ec565b806301ffc9a7146101f157806306fdde0314610221578063081812fc1461023f575b600080fd5b61020b60048036038101906102069190612ae8565b6105c3565b6040516102189190612f98565b60405180910390f35b6102296106a5565b6040516102369190612fb3565b60405180910390f35b61025960048036038101906102549190612b42565b610737565b6040516102669190612f0f565b60405180910390f35b61028960048036038101906102849190612a1d565b61077d565b005b610293610895565b6040516102a09190612f76565b60405180910390f35b6102b161096e565b6040516102be9190612f98565b60405180910390f35b6102e160048036038101906102dc91906128ab565b610981565b005b6102fd60048036038101906102f891906128ab565b6109e1565b005b61031960048036038101906103149190612a5d565b610a01565b005b610323610ad1565b6040516103309190612f76565b60405180910390f35b610341610baa565b60405161034e9190612fb3565b60405180910390f35b610371600480360381019061036c9190612b42565b610c38565b60405161037e9190612f0f565b60405180910390f35b6103a1600480360381019061039c919061283e565b610cbf565b6040516103ae9190613195565b60405180910390f35b6103bf610d77565b005b6103c9610d8b565b6040516103d69190612fb3565b60405180910390f35b6103f960048036038101906103f49190612b42565b610e19565b6040516104069190612fb3565b60405180910390f35b610417610ec5565b6040516104249190612fb3565b60405180910390f35b610435610f53565b6040516104429190612f0f565b60405180910390f35b610453610f7d565b6040516104609190612fb3565b60405180910390f35b610483600480360381019061047e9190612981565b61100f565b005b61048d611025565b60405161049a9190613195565b60405180910390f35b6104bd60048036038101906104b891906128fe565b61102b565b005b6104d960048036038101906104d49190612b42565b61108d565b6040516104e69190612fb3565b60405180910390f35b61050960048036038101906105049190612b42565b611139565b6040516105169190612fb3565b60405180910390f35b610539600480360381019061053491906129c1565b61114b565b005b610543611184565b6040516105509190612fb3565b60405180910390f35b610573600480360381019061056e919061286b565b611212565b6040516105809190612f98565b60405180910390f35b6105916112a6565b60405161059e9190612fb3565b60405180910390f35b6105c160048036038101906105bc919061283e565b611334565b005b60007f80ac58cd000000000000000000000000000000000000000000000000000000007bffffffffffffffffffffffffffffffffffffffffffffffffffffffff1916827bffffffffffffffffffffffffffffffffffffffffffffffffffffffff1916148061068e57507f5b5e139f000000000000000000000000000000000000000000000000000000007bffffffffffffffffffffffffffffffffffffffffffffffffffffffff1916827bffffffffffffffffffffffffffffffffffffffffffffffffffffffff1916145b8061069e575061069d826113b8565b5b9050919050565b6060600080546106b490613404565b80601f01602080910402602001604051908101604052809291908181526020018280546106e090613404565b801561072d5780601f106107025761010080835404028352916020019161072d565b820191906000526020600020905b81548152906001019060200180831161071057829003601f168201915b5050505050905090565b600061074282611422565b6004600083815260200190815260200160002060009054906101000a900473ffffffffffffffffffffffffffffffffffffffff169050919050565b600061078882610c38565b90508073ffffffffffffffffffffffffffffffffffffffff168373ffffffffffffffffffffffffffffffffffffffff1614156107f9576040517f08c379a00000000000000000000000000000000000000000000000000000000081526004016107f090613155565b60405180910390fd5b8073ffffffffffffffffffffffffffffffffffffffff1661081861146d565b73ffffffffffffffffffffffffffffffffffffffff16148061084757506108468161084161146d565b611212565b5b610886576040517f08c379a000000000000000000000000000000000000000000000000000000000815260040161087d90613175565b60405180910390fd5b6108908383611475565b505050565b6060600c805480602002602001604051908101604052809291908181526020016000905b828210156109655783829060005260206000200180546108d890613404565b80601f016020809104026020016040519081016040528092919081815260200182805461090490613404565b80156109515780601f1061092657610100808354040283529160200191610951565b820191906000526020600020905b81548152906001019060200180831161093457829003601f168201915b5050505050815260200190600101906108b9565b50505050905090565b601060009054906101000a900460ff1681565b61099261098c61146d565b8261152e565b6109d1576040517f08c379a00000000000000000000000000000000000000000000000000000000081526004016109c890612fd5565b60405180910390fd5b6109dc8383836115c3565b505050565b6109fc8383836040518060200160405280600081525061102b565b505050565b610a096118bd565b600115158315151415610a645781600f9080519060200190610a2c929190612652565b508060119080519060200190610a43929190612652565b506001601060006101000a81548160ff021916908315150217905550610acc565b60405180602001604052806000815250600f9080519060200190610a89929190612652565b506040518060200160405280600081525060119080519060200190610aaf929190612652565b506000601060006101000a81548160ff0219169083151502179055505b505050565b6060600d805480602002602001604051908101604052809291908181526020016000905b82821015610ba1578382906000526020600020018054610b1490613404565b80601f0160208091040260200160405190810160405280929190818152602001828054610b4090613404565b8015610b8d5780601f10610b6257610100808354040283529160200191610b8d565b820191906000526020600020905b815481529060010190602001808311610b7057829003601f168201915b505050505081526020019060010190610af5565b50505050905090565b600b8054610bb790613404565b80601f0160208091040260200160405190810160405280929190818152602001828054610be390613404565b8015610c305780601f10610c0557610100808354040283529160200191610c30565b820191906000526020600020905b815481529060010190602001808311610c1357829003601f168201915b505050505081565b600080610c448361193b565b9050600073ffffffffffffffffffffffffffffffffffffffff168173ffffffffffffffffffffffffffffffffffffffff161415610cb6576040517f08c379a0000000000000000000000000000000000000000000000000000000008152600401610cad90613135565b60405180910390fd5b80915050919050565b60008073ffffffffffffffffffffffffffffffffffffffff168273ffffffffffffffffffffffffffffffffffffffff161415610d30576040517f08c379a0000000000000000000000000000000000000000000000000000000008152600401610d27906130b5565b60405180910390fd5b600360008373ffffffffffffffffffffffffffffffffffffffff1673ffffffffffffffffffffffffffffffffffffffff168152602001908152602001600020549050919050565b610d7f6118bd565b610d896000611978565b565b600e8054610d9890613404565b80601f0160208091040260200160405190810160405280929190818152602001828054610dc490613404565b8015610e115780601f10610de657610100808354040283529160200191610e11565b820191906000526020600020905b815481529060010190602001808311610df457829003601f168201915b505050505081565b600c8181548110610e2957600080fd5b906000526020600020016000915090508054610e4490613404565b80601f0160208091040260200160405190810160405280929190818152602001828054610e7090613404565b8015610ebd5780601f10610e9257610100808354040283529160200191610ebd565b820191906000526020600020905b815481529060010190602001808311610ea057829003601f168201915b505050505081565b600f8054610ed290613404565b80601f0160208091040260200160405190810160405280929190818152602001828054610efe90613404565b8015610f4b5780601f10610f2057610100808354040283529160200191610f4b565b820191906000526020600020905b815481529060010190602001808311610f2e57829003601f168201915b505050505081565b6000600760009054906101000a900473ffffffffffffffffffffffffffffffffffffffff16905090565b606060018054610f8c90613404565b80601f0160208091040260200160405190810160405280929190818152602001828054610fb890613404565b80156110055780601f10610fda57610100808354040283529160200191611005565b820191906000526020600020905b815481529060010190602001808311610fe857829003601f168201915b5050505050905090565b61102161101a61146d565b8383611a3e565b5050565b60095481565b61103c61103661146d565b8361152e565b61107b576040517f08c379a000000000000000000000000000000000000000000000000000000000815260040161107290612fd5565b60405180910390fd5b61108784848484611bab565b50505050565b600d818154811061109d57600080fd5b9060005260206000200160009150905080546110b890613404565b80601f01602080910402602001604051908101604052809291908181526020018280546110e490613404565b80156111315780601f1061110657610100808354040283529160200191611131565b820191906000526020600020905b81548152906001019060200180831161111457829003601f168201915b505050505081565b606061114482611c07565b9050919050565b6111536118bd565b600061115f6008611d1a565b905061116b6008611d28565b6111758382611d3e565b61117f8183611d5c565b505050565b6011805461119190613404565b80601f01602080910402602001604051908101604052809291908181526020018280546111bd90613404565b801561120a5780601f106111df5761010080835404028352916020019161120a565b820191906000526020600020905b8154815290600101906020018083116111ed57829003601f168201915b505050505081565b6000600560008473ffffffffffffffffffffffffffffffffffffffff1673ffffffffffffffffffffffffffffffffffffffff16815260200190815260200160002060008373ffffffffffffffffffffffffffffffffffffffff1673ffffffffffffffffffffffffffffffffffffffff16815260200190815260200160002060009054906101000a900460ff16905092915050565b600a80546112b390613404565b80601f01602080910402602001604051908101604052809291908181526020018280546112df90613404565b801561132c5780601f106113015761010080835404028352916020019161132c565b820191906000526020600020905b81548152906001019060200180831161130f57829003601f168201915b505050505081565b61133c6118bd565b600073ffffffffffffffffffffffffffffffffffffffff168173ffffffffffffffffffffffffffffffffffffffff1614156113ac576040517f08c379a00000000000000000000000000000000000000000000000000000000081526004016113a390613015565b60405180910390fd5b6113b581611978565b50565b60007f01ffc9a7000000000000000000000000000000000000000000000000000000007bffffffffffffffffffffffffffffffffffffffffffffffffffffffff1916827bffffffffffffffffffffffffffffffffffffffffffffffffffffffff1916149050919050565b61142b81611dd0565b61146a576040517f08c379a000000000000000000000000000000000000000000000000000000000815260040161146190613135565b60405180910390fd5b50565b600033905090565b816004600083815260200190815260200160002060006101000a81548173ffffffffffffffffffffffffffffffffffffffff021916908373ffffffffffffffffffffffffffffffffffffffff160217905550808273ffffffffffffffffffffffffffffffffffffffff166114e883610c38565b73ffffffffffffffffffffffffffffffffffffffff167f8c5be1e5ebec7d5bd14f71427d1e84f3dd0314c0f7b2291e5b200ac8c7c3b92560405160405180910390a45050565b60008061153a83610c38565b90508073ffffffffffffffffffffffffffffffffffffffff168473ffffffffffffffffffffffffffffffffffffffff16148061157c575061157b8185611212565b5b806115ba57508373ffffffffffffffffffffffffffffffffffffffff166115a284610737565b73ffffffffffffffffffffffffffffffffffffffff16145b91505092915050565b8273ffffffffffffffffffffffffffffffffffffffff166115e382610c38565b73ffffffffffffffffffffffffffffffffffffffff1614611639576040517f08c379a000000000000000000000000000000000000000000000000000000000815260040161163090613035565b60405180910390fd5b600073ffffffffffffffffffffffffffffffffffffffff168273ffffffffffffffffffffffffffffffffffffffff1614156116a9576040517f08c379a00000000000000000000000000000000000000000000000000000000081526004016116a090613075565b60405180910390fd5b6116b68383836001611e11565b8273ffffffffffffffffffffffffffffffffffffffff166116d682610c38565b73ffffffffffffffffffffffffffffffffffffffff161461172c576040517f08c379a000000000000000000000000000000000000000000000000000000000815260040161172390613035565b60405180910390fd5b6004600082815260200190815260200160002060006101000a81549073ffffffffffffffffffffffffffffffffffffffff02191690556001600360008573ffffffffffffffffffffffffffffffffffffffff1673ffffffffffffffffffffffffffffffffffffffff168152602001908152602001600020600082825403925050819055506001600360008473ffffffffffffffffffffffffffffffffffffffff1673ffffffffffffffffffffffffffffffffffffffff16815260200190815260200160002060008282540192505081905550816002600083815260200190815260200160002060006101000a81548173ffffffffffffffffffffffffffffffffffffffff021916908373ffffffffffffffffffffffffffffffffffffffff160217905550808273ffffffffffffffffffffffffffffffffffffffff168473ffffffffffffffffffffffffffffffffffffffff167fddf252ad1be2c89b69c2b068fc378daa952ba7f163c4a11628f55a4df523b3ef60405160405180910390a46118b88383836001611f37565b505050565b6118c561146d565b73ffffffffffffffffffffffffffffffffffffffff166118e3610f53565b73ffffffffffffffffffffffffffffffffffffffff1614611939576040517f08c379a000000000000000000000000000000000000000000000000000000000815260040161193090613115565b60405180910390fd5b565b60006002600083815260200190815260200160002060009054906101000a900473ffffffffffffffffffffffffffffffffffffffff169050919050565b6000600760009054906101000a900473ffffffffffffffffffffffffffffffffffffffff16905081600760006101000a81548173ffffffffffffffffffffffffffffffffffffffff021916908373ffffffffffffffffffffffffffffffffffffffff1602179055508173ffffffffffffffffffffffffffffffffffffffff168173ffffffffffffffffffffffffffffffffffffffff167f8be0079c531659141344cd1fd0a4f28419497f9722a3daafe3b4186f6b6457e060405160405180910390a35050565b8173ffffffffffffffffffffffffffffffffffffffff168373ffffffffffffffffffffffffffffffffffffffff161415611aad576040517f08c379a0000000000000000000000000000000000000000000000000000000008152600401611aa490613095565b60405180910390fd5b80600560008573ffffffffffffffffffffffffffffffffffffffff1673ffffffffffffffffffffffffffffffffffffffff16815260200190815260200160002060008473ffffffffffffffffffffffffffffffffffffffff1673ffffffffffffffffffffffffffffffffffffffff16815260200190815260200160002060006101000a81548160ff0219169083151502179055508173ffffffffffffffffffffffffffffffffffffffff168373ffffffffffffffffffffffffffffffffffffffff167f17307eab39ab6107e8899845ad3d59bd9653f200f220920489ca2b5937696c3183604051611b9e9190612f98565b60405180910390a3505050565b611bb68484846115c3565b611bc284848484611f3d565b611c01576040517f08c379a0000000000000000000000000000000000000000000000000000000008152600401611bf890612ff5565b60405180910390fd5b50505050565b6060611c1282611422565b6000600660008481526020019081526020016000208054611c3290613404565b80601f0160208091040260200160405190810160405280929190818152602001828054611c5e90613404565b8015611cab5780601f10611c8057610100808354040283529160200191611cab565b820191906000526020600020905b815481529060010190602001808311611c8e57829003601f168201915b505050505090506000611cbc61210c565b9050600081511415611cd2578192505050611d15565b600082511115611d07578082604051602001611cef929190612eeb565b60405160208183030381529060405292505050611d15565b611d1084612123565b925050505b919050565b600081600001549050919050565b6001816000016000828254019250508190555050565b611d5882826040518060200160405280600081525061218b565b5050565b611d6582611dd0565b611da4576040517f08c379a0000000000000000000000000000000000000000000000000000000008152600401611d9b906130d5565b60405180910390fd5b80600660008481526020019081526020016000209080519060200190611dcb929190612652565b505050565b60008073ffffffffffffffffffffffffffffffffffffffff16611df28361193b565b73ffffffffffffffffffffffffffffffffffffffff1614159050919050565b6001811115611f3157600073ffffffffffffffffffffffffffffffffffffffff168473ffffffffffffffffffffffffffffffffffffffff1614611ea55780600360008673ffffffffffffffffffffffffffffffffffffffff1673ffffffffffffffffffffffffffffffffffffffff1681526020019081526020016000206000828254611e9d919061331a565b925050819055505b600073ffffffffffffffffffffffffffffffffffffffff168373ffffffffffffffffffffffffffffffffffffffff1614611f305780600360008573ffffffffffffffffffffffffffffffffffffffff1673ffffffffffffffffffffffffffffffffffffffff1681526020019081526020016000206000828254611f2891906132c4565b925050819055505b5b50505050565b50505050565b6000611f5e8473ffffffffffffffffffffffffffffffffffffffff166121e6565b156120ff578373ffffffffffffffffffffffffffffffffffffffff1663150b7a02611f8761146d565b8786866040518563ffffffff167c0100000000000000000000000000000000000000000000000000000000028152600401611fc59493929190612f2a565b602060405180830381600087803b158015611fdf57600080fd5b505af192505050801561201057506040513d601f19601f8201168201806040525081019061200d9190612b15565b60015b612093573d8060008114612040576040519150601f19603f3d011682016040523d82523d6000602084013e612045565b606091505b5060008151141561208b576040517f08c379a000000000000000000000000000000000000000000000000000000000815260040161208290612ff5565b60405180910390fd5b805181602001fd5b63150b7a027c0100000000000000000000000000000000000000000000000000000000027bffffffffffffffffffffffffffffffffffffffffffffffffffffffff1916817bffffffffffffffffffffffffffffffffffffffffffffffffffffffff191614915050612104565b600190505b949350505050565b606060405180602001604052806000815250905090565b606061212e82611422565b600061213861210c565b905060008151116121585760405180602001604052806000815250612183565b8061216284612209565b604051602001612173929190612eeb565b6040516020818303038152906040525b915050919050565b61219583836122e1565b6121a26000848484611f3d565b6121e1576040517f08c379a00000000000000000000000000000000000000000000000000000000081526004016121d890612ff5565b60405180910390fd5b505050565b6000808273ffffffffffffffffffffffffffffffffffffffff163b119050919050565b606060006001612218846124ff565b01905060008167ffffffffffffffff811115612237576122366134f4565b5b6040519080825280601f01601f1916602001820160405280156122695781602001600182028036833780820191505090505b509050600082602001820190505b6001156122d6578080600190039150507f3031323334353637383961626364656600000000000000000000000000000000600a86061a8153600a85816122c0576122bf613496565b5b04945060008514156122d1576122d6565b612277565b819350505050919050565b600073ffffffffffffffffffffffffffffffffffffffff168273ffffffffffffffffffffffffffffffffffffffff161415612351576040517f08c379a0000000000000000000000000000000000000000000000000000000008152600401612348906130f5565b60405180910390fd5b61235a81611dd0565b1561239a576040517f08c379a000000000000000000000000000000000000000000000000000000000815260040161239190613055565b60405180910390fd5b6123a8600083836001611e11565b6123b181611dd0565b156123f1576040517f08c379a00000000000000000000000000000000000000000000000000000000081526004016123e890613055565b60405180910390fd5b6001600360008473ffffffffffffffffffffffffffffffffffffffff1673ffffffffffffffffffffffffffffffffffffffff16815260200190815260200160002060008282540192505081905550816002600083815260200190815260200160002060006101000a81548173ffffffffffffffffffffffffffffffffffffffff021916908373ffffffffffffffffffffffffffffffffffffffff160217905550808273ffffffffffffffffffffffffffffffffffffffff16600073ffffffffffffffffffffffffffffffffffffffff167fddf252ad1be2c89b69c2b068fc378daa952ba7f163c4a11628f55a4df523b3ef60405160405180910390a46124fb600083836001611f37565b5050565b600080600090507a184f03e93ff9f4daa797ed6e38ed64bf6a1f010000000000000000831061255d577a184f03e93ff9f4daa797ed6e38ed64bf6a1f010000000000000000838161255357612552613496565b5b0492506040810190505b6d04ee2d6d415b85acef8100000000831061259a576d04ee2d6d415b85acef810000000083816125905761258f613496565b5b0492506020810190505b662386f26fc1000083106125c957662386f26fc1000083816125bf576125be613496565b5b0492506010810190505b6305f5e10083106125f2576305f5e10083816125e8576125e7613496565b5b0492506008810190505b612710831061261757612710838161260d5761260c613496565b5b0492506004810190505b6064831061263a57606483816126305761262f613496565b5b0492506002810190505b600a8310612649576001810190505b80915050919050565b82805461265e90613404565b90600052602060002090601f01602090048101928261268057600085556126c7565b82601f1061269957805160ff19168380011785556126c7565b828001600101855582156126c7579182015b828111156126c65782518255916020019190600101906126ab565b5b5090506126d491906126d8565b5090565b5b808211156126f15760008160009055506001016126d9565b5090565b6000612708612703846131d5565b6131b0565b90508281526020810184848401111561272457612723613528565b5b61272f8482856133c2565b509392505050565b600061274a61274584613206565b6131b0565b90508281526020810184848401111561276657612765613528565b5b6127718482856133c2565b509392505050565b600081359050612788816138dc565b92915050565b60008135905061279d816138f3565b92915050565b6000813590506127b28161390a565b92915050565b6000815190506127c78161390a565b92915050565b600082601f8301126127e2576127e1613523565b5b81356127f28482602086016126f5565b91505092915050565b600082601f8301126128105761280f613523565b5b8135612820848260208601612737565b91505092915050565b60008135905061283881613921565b92915050565b60006020828403121561285457612853613532565b5b600061286284828501612779565b91505092915050565b6000806040838503121561288257612881613532565b5b600061289085828601612779565b92505060206128a185828601612779565b9150509250929050565b6000806000606084860312156128c4576128c3613532565b5b60006128d286828701612779565b93505060206128e386828701612779565b92505060406128f486828701612829565b9150509250925092565b6000806000806080858703121561291857612917613532565b5b600061292687828801612779565b945050602061293787828801612779565b935050604061294887828801612829565b925050606085013567ffffffffffffffff8111156129695761296861352d565b5b612975878288016127cd565b91505092959194509250565b6000806040838503121561299857612997613532565b5b60006129a685828601612779565b92505060206129b78582860161278e565b9150509250929050565b600080604083850312156129d8576129d7613532565b5b60006129e685828601612779565b925050602083013567ffffffffffffffff811115612a0757612a0661352d565b5b612a13858286016127fb565b9150509250929050565b60008060408385031215612a3457612a33613532565b5b6000612a4285828601612779565b9250506020612a5385828601612829565b9150509250929050565b600080600060608486031215612a7657612a75613532565b5b6000612a848682870161278e565b935050602084013567ffffffffffffffff811115612aa557612aa461352d565b5b612ab1868287016127fb565b925050604084013567ffffffffffffffff811115612ad257612ad161352d565b5b612ade868287016127fb565b9150509250925092565b600060208284031215612afe57612afd613532565b5b6000612b0c848285016127a3565b91505092915050565b600060208284031215612b2b57612b2a613532565b5b6000612b39848285016127b8565b91505092915050565b600060208284031215612b5857612b57613532565b5b6000612b6684828501612829565b91505092915050565b6000612b7b8383612c4f565b905092915050565b612b8c8161334e565b82525050565b6000612b9d82613247565b612ba78185613275565b935083602082028501612bb985613237565b8060005b85811015612bf55784840389528151612bd68582612b6f565b9450612be183613268565b925060208a01995050600181019050612bbd565b50829750879550505050505092915050565b612c1081613360565b82525050565b6000612c2182613252565b612c2b8185613286565b9350612c3b8185602086016133d1565b612c4481613537565b840191505092915050565b6000612c5a8261325d565b612c648185613297565b9350612c748185602086016133d1565b612c7d81613537565b840191505092915050565b6000612c938261325d565b612c9d81856132a8565b9350612cad8185602086016133d1565b612cb681613537565b840191505092915050565b6000612ccc8261325d565b612cd681856132b9565b9350612ce68185602086016133d1565b80840191505092915050565b6000612cff602d836132a8565b9150612d0a82613548565b604082019050919050565b6000612d226032836132a8565b9150612d2d82613597565b604082019050919050565b6000612d456026836132a8565b9150612d50826135e6565b604082019050919050565b6000612d686025836132a8565b9150612d7382613635565b604082019050919050565b6000612d8b601c836132a8565b9150612d9682613684565b602082019050919050565b6000612dae6024836132a8565b9150612db9826136ad565b604082019050919050565b6000612dd16019836132a8565b9150612ddc826136fc565b602082019050919050565b6000612df46029836132a8565b9150612dff82613725565b604082019050919050565b6000612e17602e836132a8565b9150612e2282613774565b604082019050919050565b6000612e3a6020836132a8565b9150612e45826137c3565b602082019050919050565b6000612e5d6020836132a8565b9150612e68826137ec565b602082019050919050565b6000612e806018836132a8565b9150612e8b82613815565b602082019050919050565b6000612ea36021836132a8565b9150612eae8261383e565b604082019050919050565b6000612ec6603d836132a8565b9150612ed18261388d565b604082019050919050565b612ee5816133b8565b82525050565b6000612ef78285612cc1565b9150612f038284612cc1565b91508190509392505050565b6000602082019050612f246000830184612b83565b92915050565b6000608082019050612f3f6000830187612b83565b612f4c6020830186612b83565b612f596040830185612edc565b8181036060830152612f6b8184612c16565b905095945050505050565b60006020820190508181036000830152612f908184612b92565b905092915050565b6000602082019050612fad6000830184612c07565b92915050565b60006020820190508181036000830152612fcd8184612c88565b905092915050565b60006020820190508181036000830152612fee81612cf2565b9050919050565b6000602082019050818103600083015261300e81612d15565b9050919050565b6000602082019050818103600083015261302e81612d38565b9050919050565b6000602082019050818103600083015261304e81612d5b565b9050919050565b6000602082019050818103600083015261306e81612d7e565b9050919050565b6000602082019050818103600083015261308e81612da1565b9050919050565b600060208201905081810360008301526130ae81612dc4565b9050919050565b600060208201905081810360008301526130ce81612de7565b9050919050565b600060208201905081810360008301526130ee81612e0a565b9050919050565b6000602082019050818103600083015261310e81612e2d565b9050919050565b6000602082019050818103600083015261312e81612e50565b9050919050565b6000602082019050818103600083015261314e81612e73565b9050919050565b6000602082019050818103600083015261316e81612e96565b9050919050565b6000602082019050818103600083015261318e81612eb9565b9050919050565b60006020820190506131aa6000830184612edc565b92915050565b60006131ba6131cb565b90506131c68282613436565b919050565b6000604051905090565b600067ffffffffffffffff8211156131f0576131ef6134f4565b5b6131f982613537565b9050602081019050919050565b600067ffffffffffffffff821115613221576132206134f4565b5b61322a82613537565b9050602081019050919050565b6000819050602082019050919050565b600081519050919050565b600081519050919050565b600081519050919050565b6000602082019050919050565b600082825260208201905092915050565b600082825260208201905092915050565b600082825260208201905092915050565b600082825260208201905092915050565b600081905092915050565b60006132cf826133b8565b91506132da836133b8565b9250827fffffffffffffffffffffffffffffffffffffffffffffffffffffffffffffffff0382111561330f5761330e613467565b5b828201905092915050565b6000613325826133b8565b9150613330836133b8565b92508282101561334357613342613467565b5b828203905092915050565b600061335982613398565b9050919050565b60008115159050919050565b60007fffffffff0000000000000000000000000000000000000000000000000000000082169050919050565b600073ffffffffffffffffffffffffffffffffffffffff82169050919050565b6000819050919050565b82818337600083830152505050565b60005b838110156133ef5780820151818401526020810190506133d4565b838111156133fe576000848401525b50505050565b6000600282049050600182168061341c57607f821691505b602082108114156134305761342f6134c5565b5b50919050565b61343f82613537565b810181811067ffffffffffffffff8211171561345e5761345d6134f4565b5b80604052505050565b7f4e487b7100000000000000000000000000000000000000000000000000000000600052601160045260246000fd5b7f4e487b7100000000000000000000000000000000000000000000000000000000600052601260045260246000fd5b7f4e487b7100000000000000000000000000000000000000000000000000000000600052602260045260246000fd5b7f4e487b7100000000000000000000000000000000000000000000000000000000600052604160045260246000fd5b600080fd5b600080fd5b600080fd5b600080fd5b6000601f19601f8301169050919050565b7f4552433732313a2063616c6c6572206973206e6f7420746f6b656e206f776e6560008201527f72206f7220617070726f76656400000000000000000000000000000000000000602082015250565b7f4552433732313a207472616e7366657220746f206e6f6e20455243373231526560008201527f63656976657220696d706c656d656e7465720000000000000000000000000000602082015250565b7f4f776e61626c653a206e6577206f776e657220697320746865207a65726f206160008201527f6464726573730000000000000000000000000000000000000000000000000000602082015250565b7f4552433732313a207472616e736665722066726f6d20696e636f72726563742060008201527f6f776e6572000000000000000000000000000000000000000000000000000000602082015250565b7f4552433732313a20746f6b656e20616c7265616479206d696e74656400000000600082015250565b7f4552433732313a207472616e7366657220746f20746865207a65726f2061646460008201527f7265737300000000000000000000000000000000000000000000000000000000602082015250565b7f4552433732313a20617070726f766520746f2063616c6c657200000000000000600082015250565b7f4552433732313a2061646472657373207a65726f206973206e6f74206120766160008201527f6c6964206f776e65720000000000000000000000000000000000000000000000602082015250565b7f45524337323155524953746f726167653a2055524920736574206f66206e6f6e60008201527f6578697374656e7420746f6b656e000000000000000000000000000000000000602082015250565b7f4552433732313a206d696e7420746f20746865207a65726f2061646472657373600082015250565b7f4f776e61626c653a2063616c6c6572206973206e6f7420746865206f776e6572600082015250565b7f4552433732313a20696e76616c696420746f6b656e2049440000000000000000600082015250565b7f4552433732313a20617070726f76616c20746f2063757272656e74206f776e6560008201527f7200000000000000000000000000000000000000000000000000000000000000602082015250565b7f4552433732313a20617070726f76652063616c6c6572206973206e6f7420746f60008201527f6b656e206f776e6572206f7220617070726f76656420666f7220616c6c000000602082015250565b6138e58161334e565b81146138f057600080fd5b50565b6138fc81613360565b811461390757600080fd5b50565b6139138161336c565b811461391e57600080fd5b50565b61392a816133b8565b811461393557600080fd5b5056fea2646970667358221220167ea2aa590a59b3cb4db259e4b256994ac779e697e98c5f0c45c97f016f78e664736f6c63430008060033",
  "immutableReferences": {},
  "source": "// SPDX-License-Identifier: MIT\r\npragma solidity ^0.8.6;\r\nimport \"@openzeppelin/contracts/token/ERC721/ERC721.sol\";\r\nimport \"@openzeppelin/contracts/token/ERC721/extensions/ERC721URIStorage.sol\";\r\nimport \"@openzeppelin/contracts/access/Ownable.sol\";\r\nimport \"@openzeppelin/contracts/utils/Counters.sol\";\r\n\r\n\r\ncontract Streamx is ERC721, ERC721URIStorage, Ownable {\r\n  using Counters for Counters.Counter;\r\n  Counters.Counter private _tokenIdCounter;\r\n  uint256 public id;\r\n  string public streamername;\r\n  string public url;\r\n  string[] public images;\r\n  string[] public categories;\r\n  string public description;\r\n  string public streamUri;\r\n  bool public streamstatus;\r\n  string public streamdesc;\r\n  constructor(\r\n    uint256 _id,\r\n    string memory _name,\r\n    string memory _url,\r\n    string[] memory _images,\r\n    string[] memory _categories,\r\n    string memory _description\r\n  ) ERC721(_name, \"STX\") {\r\n    id = _id;\r\n    streamername = _name;\r\n    url = _url;\r\n    images = _images;\r\n    categories = _categories;\r\n    description = _description;\r\n    streamstatus=false;\r\n\r\n  }\r\n\r\n  function safeMint(address to, string memory uri) public onlyOwner {\r\n    uint256 tokenId = _tokenIdCounter.current();\r\n    _tokenIdCounter.increment();\r\n    _safeMint(to, tokenId);\r\n    _setTokenURI(tokenId, uri);\r\n  }\r\n  function streamURIupdate(bool update,string memory streamuri,string memory streamdescs) public onlyOwner {\r\n    if(update==true){\r\n    streamUri=streamuri;\r\n    streamdesc=streamdescs;\r\n    streamstatus=true;\r\n    }else{\r\n    streamUri=\"\";\r\n    streamdesc=\"\";\r\n    streamstatus=false;\r\n    }\r\n  }\r\n  // The following functions are overrides required by Solidity.\r\n\r\n  function _burn(uint256 tokenId) internal override(ERC721, ERC721URIStorage) {\r\n    super._burn(tokenId);\r\n  }\r\n\r\n  function tokenURI(uint256 tokenId)\r\n    public\r\n    view\r\n    override(ERC721, ERC721URIStorage)\r\n    returns (string memory)\r\n  {\r\n    return super.tokenURI(tokenId);\r\n  }\r\n  function getImageUrls() public view returns(string[] memory){\r\n    return images;\r\n  }\r\n\r\n  function getCategories() public view returns(string[] memory){\r\n    return categories;\r\n  }\r\n}\r\n",
  "sourcePath": "/home/kunaldawar/streamx/smartcontract/contracts/Streamx.sol",
  "compiler": {
    "name": "solc",
    "version": "0.8.6+commit.11564f7e.Linux.g++"
  },
  "schemaVersion": "3.4.10",
  "updatedAt": "2022-11-22T06:10:12.258Z",
  "devdoc": {
    "kind": "dev",
    "methods": {
      "approve(address,uint256)": {
        "details": "See {IERC721-approve}."
      },
      "balanceOf(address)": {
        "details": "See {IERC721-balanceOf}."
      },
      "getApproved(uint256)": {
        "details": "See {IERC721-getApproved}."
      },
      "isApprovedForAll(address,address)": {
        "details": "See {IERC721-isApprovedForAll}."
      },
      "name()": {
        "details": "See {IERC721Metadata-name}."
      },
      "owner()": {
        "details": "Returns the address of the current owner."
      },
      "ownerOf(uint256)": {
        "details": "See {IERC721-ownerOf}."
      },
      "renounceOwnership()": {
        "details": "Leaves the contract without owner. It will not be possible to call `onlyOwner` functions anymore. Can only be called by the current owner. NOTE: Renouncing ownership will leave the contract without an owner, thereby removing any functionality that is only available to the owner."
      },
      "safeTransferFrom(address,address,uint256)": {
        "details": "See {IERC721-safeTransferFrom}."
      },
      "safeTransferFrom(address,address,uint256,bytes)": {
        "details": "See {IERC721-safeTransferFrom}."
      },
      "setApprovalForAll(address,bool)": {
        "details": "See {IERC721-setApprovalForAll}."
      },
      "supportsInterface(bytes4)": {
        "details": "See {IERC165-supportsInterface}."
      },
      "symbol()": {
        "details": "See {IERC721Metadata-symbol}."
      },
      "transferFrom(address,address,uint256)": {
        "details": "See {IERC721-transferFrom}."
      },
      "transferOwnership(address)": {
        "details": "Transfers ownership of the contract to a new account (`newOwner`). Can only be called by the current owner."
      }
    },
    "version": 1
  },
  "userdoc": {
    "kind": "user",
    "methods": {},
    "version": 1
  }
}