{
  "contractName": "StreamxFactory",
  "abi": [
    {
      "anonymous": false,
      "inputs": [
        {
          "indexed": true,
          "internalType": "contract Streamx",
          "name": "streamer",
          "type": "address"
        },
        {
          "indexed": true,
          "internalType": "address",
          "name": "owner",
          "type": "address"
        }
      ],
      "name": "StreamerCreated",
      "type": "event"
    },
    {
      "inputs": [],
      "name": "currentId",
      "outputs": [
        {
          "internalType": "uint256",
          "name": "",
          "type": "uint256"
        }
      ],
      "stateMutability": "view",
      "type": "function",
      "constant": true
    },
    {
      "inputs": [
        {
          "internalType": "uint256",
          "name": "",
          "type": "uint256"
        }
      ],
      "name": "items",
      "outputs": [
        {
          "internalType": "uint256",
          "name": "id",
          "type": "uint256"
        },
        {
          "internalType": "address",
          "name": "owner",
          "type": "address"
        },
        {
          "internalType": "address",
          "name": "contractaddress",
          "type": "address"
        }
      ],
      "stateMutability": "view",
      "type": "function",
      "constant": true
    },
    {
      "inputs": [
        {
          "internalType": "string",
          "name": "name",
          "type": "string"
        },
        {
          "internalType": "string",
          "name": "url",
          "type": "string"
        },
        {
          "internalType": "string[]",
          "name": "images",
          "type": "string[]"
        },
        {
          "internalType": "string[]",
          "name": "categories",
          "type": "string[]"
        },
        {
          "internalType": "string",
          "name": "description",
          "type": "string"
        }
      ],
      "name": "createStreamer",
      "outputs": [],
      "stateMutability": "nonpayable",
      "type": "function"
    },
    {
      "inputs": [],
      "name": "streamersCount",
      "outputs": [
        {
          "internalType": "uint256",
          "name": "",
          "type": "uint256"
        }
      ],
      "stateMutability": "view",
      "type": "function",
      "constant": true
    },
    {
      "inputs": [
        {
          "internalType": "uint256",
          "name": "limit",
          "type": "uint256"
        },
        {
          "internalType": "uint256",
          "name": "offset",
          "type": "uint256"
        }
      ],
      "name": "streamers",
      "outputs": [
        {
          "internalType": "contract Streamx[]",
          "name": "coll",
          "type": "address[]"
        }
      ],
      "stateMutability": "view",
      "type": "function",
      "constant": true
    },
    {
      "inputs": [
        {
          "internalType": "address",
          "name": "_owner",
          "type": "address"
        }
      ],
      "name": "getOwnedItems",
      "outputs": [
        {
          "components": [
            {
              "internalType": "uint256",
              "name": "id",
              "type": "uint256"
            },
            {
              "internalType": "address",
              "name": "owner",
              "type": "address"
            },
            {
              "internalType": "address",
              "name": "contractaddress",
              "type": "address"
            }
          ],
          "internalType": "struct StreamxFactory.Item[]",
          "name": "nfts",
          "type": "tuple[]"
        }
      ],
      "stateMutability": "view",
      "type": "function",
      "constant": true
    },
    {
      "inputs": [
        {
          "internalType": "address",
          "name": "_owner",
          "type": "address"
        }
      ],
      "name": "checkstatus",
      "outputs": [
        {
          "internalType": "bool",
          "name": "value",
          "type": "bool"
        }
      ],
      "stateMutability": "view",
      "type": "function",
      "constant": true
    }
  ],
  "bytecode": "0x608060405234801561001057600080fd5b5061592f806100206000396000f3fe60806040523480156200001157600080fd5b5060043610620000a5576000357c010000000000000000000000000000000000000000000000000000000090048063bfb231d21162000080578063bfb231d21462000122578063dd488d8d146200015a578063e00dd1611462000190578063e417dc3514620001b257620000a5565b8063309da49714620000aa57806390cb6c8b14620000ca578063a8de0ffe1462000100575b600080fd5b620000c86004803603810190620000c2919062000c53565b620001e8565b005b620000e86004803603810190620000e2919062000da8565b620004e3565b604051620000f7919062001129565b60405180910390f35b6200010a6200068f565b604051620001199190620011d2565b60405180910390f35b6200014060048036038101906200013a919062000d76565b6200069b565b6040516200015193929190620011ef565b60405180910390f35b62000178600480360381019062000172919062000c21565b62000705565b60405162000187919062001171565b60405180910390f35b6200019a620007aa565b604051620001a99190620011d2565b60405180910390f35b620001d06004803603810190620001ca919062000c21565b620007b0565b604051620001df91906200114d565b60405180910390f35b620001f333620009a6565b62000235576040517f08c379a00000000000000000000000000000000000000000000000000000000081526004016200022c90620011b0565b60405180910390fd5b600060025486868686866040516200024d9062000a4b565b6200025e969594939291906200122c565b604051809103906000f0801580156200027b573d6000803e3d6000fd5b5090508073ffffffffffffffffffffffffffffffffffffffff1663f2fde38b336040518263ffffffff167c0100000000000000000000000000000000000000000000000000000000028152600401620002d591906200110c565b600060405180830381600087803b158015620002f057600080fd5b505af115801562000305573d6000803e3d6000fd5b50505050604051806060016040528060025481526020013373ffffffffffffffffffffffffffffffffffffffff1681526020018273ffffffffffffffffffffffffffffffffffffffff168152506001600060025481526020019081526020016000206000820151816000015560208201518160010160006101000a81548173ffffffffffffffffffffffffffffffffffffffff021916908373ffffffffffffffffffffffffffffffffffffffff16021790555060408201518160020160006101000a81548173ffffffffffffffffffffffffffffffffffffffff021916908373ffffffffffffffffffffffffffffffffffffffff1602179055509050506000819080600181540180825580915050600190039060005260206000200160009091909190916101000a81548173ffffffffffffffffffffffffffffffffffffffff021916908373ffffffffffffffffffffffffffffffffffffffff1602179055506001600260008282546200047a919062001422565b925050819055503373ffffffffffffffffffffffffffffffffffffffff168173ffffffffffffffffffffffffffffffffffffffff167f3b35e6f156bdbc57020a0f56c5235800e39cf18938210d7d2bc78ef10e5c966760405160405180910390a3505050505050565b6060620004ef6200068f565b82111562000534576040517f08c379a00000000000000000000000000000000000000000000000000000000081526004016200052b906200118e565b60405180910390fd5b600082620005416200068f565b6200054d91906200147f565b90508381106200055e578362000560565b805b9050601481106200057357601462000575565b805b90508067ffffffffffffffff81111562000594576200059362001653565b5b604051908082528060200260200182016040528015620005c35781602001602082028036833780820191505090505b50915060005b81811015620006875760008185620005e2919062001422565b81548110620005f657620005f562001624565b5b9060005260206000200160009054906101000a900473ffffffffffffffffffffffffffffffffffffffff1683828151811062000637576200063662001624565b5b602002602001019073ffffffffffffffffffffffffffffffffffffffff16908173ffffffffffffffffffffffffffffffffffffffff168152505080806200067e90620015a7565b915050620005c9565b505092915050565b60008080549050905090565b60016020528060005260406000206000915090508060000154908060010160009054906101000a900473ffffffffffffffffffffffffffffffffffffffff16908060020160009054906101000a900473ffffffffffffffffffffffffffffffffffffffff16905083565b60008060025490506001915060005b81811015620007a3578373ffffffffffffffffffffffffffffffffffffffff166001600083815260200190815260200160002060010160009054906101000a900473ffffffffffffffffffffffffffffffffffffffff1673ffffffffffffffffffffffffffffffffffffffff1614156200078d57600092505b80806200079a90620015a7565b91505062000714565b5050919050565b60025481565b6060600060025490508067ffffffffffffffff811115620007d657620007d562001653565b5b6040519080825280602002602001820160405280156200081357816020015b620007ff62000a59565b815260200190600190039081620007f55790505b50915060005b818110156200099f578373ffffffffffffffffffffffffffffffffffffffff166001600083815260200190815260200160002060010160009054906101000a900473ffffffffffffffffffffffffffffffffffffffff1673ffffffffffffffffffffffffffffffffffffffff1614156200098957600060016000838152602001908152602001600020905080604051806060016040529081600082015481526020016001820160009054906101000a900473ffffffffffffffffffffffffffffffffffffffff1673ffffffffffffffffffffffffffffffffffffffff1673ffffffffffffffffffffffffffffffffffffffff1681526020016002820160009054906101000a900473ffffffffffffffffffffffffffffffffffffffff1673ffffffffffffffffffffffffffffffffffffffff1673ffffffffffffffffffffffffffffffffffffffff16815250508483815181106200097c576200097b62001624565b5b6020026020010181905250505b80806200099690620015a7565b91505062000819565b5050919050565b60008060025490506001915060005b8181101562000a44578373ffffffffffffffffffffffffffffffffffffffff166001600083815260200190815260200160002060010160009054906101000a900473ffffffffffffffffffffffffffffffffffffffff1673ffffffffffffffffffffffffffffffffffffffff16141562000a2e57600092505b808062000a3b90620015a7565b915050620009b5565b5050919050565b6141c7806200173383390190565b604051806060016040528060008152602001600073ffffffffffffffffffffffffffffffffffffffff168152602001600073ffffffffffffffffffffffffffffffffffffffff1681525090565b600062000abd62000ab784620012e5565b620012bc565b9050808382526020820190508285602086028201111562000ae35762000ae262001687565b5b60005b8581101562000b3857813567ffffffffffffffff81111562000b0d5762000b0c62001682565b5b80860162000b1c898262000bd7565b8552602085019450602084019350505060018101905062000ae6565b5050509392505050565b600062000b5962000b538462001314565b620012bc565b90508281526020810184848401111562000b785762000b776200168c565b5b62000b858482856200152c565b509392505050565b60008135905062000b9e81620016fe565b92915050565b600082601f83011262000bbc5762000bbb62001682565b5b813562000bce84826020860162000aa6565b91505092915050565b600082601f83011262000bef5762000bee62001682565b5b813562000c0184826020860162000b42565b91505092915050565b60008135905062000c1b8162001718565b92915050565b60006020828403121562000c3a5762000c3962001696565b5b600062000c4a8482850162000b8d565b91505092915050565b600080600080600060a0868803121562000c725762000c7162001696565b5b600086013567ffffffffffffffff81111562000c935762000c9262001691565b5b62000ca18882890162000bd7565b955050602086013567ffffffffffffffff81111562000cc55762000cc462001691565b5b62000cd38882890162000bd7565b945050604086013567ffffffffffffffff81111562000cf75762000cf662001691565b5b62000d058882890162000ba4565b935050606086013567ffffffffffffffff81111562000d295762000d2862001691565b5b62000d378882890162000ba4565b925050608086013567ffffffffffffffff81111562000d5b5762000d5a62001691565b5b62000d698882890162000bd7565b9150509295509295909350565b60006020828403121562000d8f5762000d8e62001696565b5b600062000d9f8482850162000c0a565b91505092915050565b6000806040838503121562000dc25762000dc162001696565b5b600062000dd28582860162000c0a565b925050602062000de58582860162000c0a565b9150509250929050565b600062000dfd838362000fc1565b60208301905092915050565b600062000e17838362000fd2565b905092915050565b600062000e2d8383620010a2565b60608301905092915050565b62000e4481620014ba565b82525050565b62000e5581620014ba565b82525050565b600062000e68826200137a565b62000e748185620013cd565b935062000e81836200134a565b8060005b8381101562000eb857815162000e9c888262000def565b975062000ea983620013a6565b92505060018101905062000e85565b5085935050505092915050565b600062000ed28262001385565b62000ede8185620013de565b93508360208202850162000ef2856200135a565b8060005b8581101562000f34578484038952815162000f12858262000e09565b945062000f1f83620013b3565b925060208a0199505060018101905062000ef6565b50829750879550505050505092915050565b600062000f538262001390565b62000f5f8185620013ef565b935062000f6c836200136a565b8060005b8381101562000fa357815162000f87888262000e1f565b975062000f9483620013c0565b92505060018101905062000f70565b5085935050505092915050565b62000fbb81620014ce565b82525050565b62000fcc8162001504565b82525050565b600062000fdf826200139b565b62000feb818562001400565b935062000ffd8185602086016200153b565b62001008816200169b565b840191505092915050565b600062001020826200139b565b6200102c818562001411565b93506200103e8185602086016200153b565b62001049816200169b565b840191505092915050565b60006200106360148362001411565b91506200107082620016ac565b602082019050919050565b60006200108a60208362001411565b91506200109782620016d5565b602082019050919050565b606082016000820151620010ba6000850182620010ea565b506020820151620010cf602085018262000e39565b506040820151620010e4604085018262000e39565b50505050565b620010f581620014fa565b82525050565b6200110681620014fa565b82525050565b600060208201905062001123600083018462000e4a565b92915050565b6000602082019050818103600083015262001145818462000e5b565b905092915050565b6000602082019050818103600083015262001169818462000f46565b905092915050565b600060208201905062001188600083018462000fb0565b92915050565b60006020820190508181036000830152620011a98162001054565b9050919050565b60006020820190508181036000830152620011cb816200107b565b9050919050565b6000602082019050620011e96000830184620010fb565b92915050565b6000606082019050620012066000830186620010fb565b62001215602083018562000e4a565b62001224604083018462000e4a565b949350505050565b600060c082019050620012436000830189620010fb565b818103602083015262001257818862001013565b905081810360408301526200126d818762001013565b9050818103606083015262001283818662000ec5565b9050818103608083015262001299818562000ec5565b905081810360a0830152620012af818462001013565b9050979650505050505050565b6000620012c8620012db565b9050620012d6828262001571565b919050565b6000604051905090565b600067ffffffffffffffff82111562001303576200130262001653565b5b602082029050602081019050919050565b600067ffffffffffffffff82111562001332576200133162001653565b5b6200133d826200169b565b9050602081019050919050565b6000819050602082019050919050565b6000819050602082019050919050565b6000819050602082019050919050565b600081519050919050565b600081519050919050565b600081519050919050565b600081519050919050565b6000602082019050919050565b6000602082019050919050565b6000602082019050919050565b600082825260208201905092915050565b600082825260208201905092915050565b600082825260208201905092915050565b600082825260208201905092915050565b600082825260208201905092915050565b60006200142f82620014fa565b91506200143c83620014fa565b9250827fffffffffffffffffffffffffffffffffffffffffffffffffffffffffffffffff03821115620014745762001473620015f5565b5b828201905092915050565b60006200148c82620014fa565b91506200149983620014fa565b925082821015620014af57620014ae620015f5565b5b828203905092915050565b6000620014c782620014da565b9050919050565b60008115159050919050565b600073ffffffffffffffffffffffffffffffffffffffff82169050919050565b6000819050919050565b6000620015118262001518565b9050919050565b60006200152582620014da565b9050919050565b82818337600083830152505050565b60005b838110156200155b5780820151818401526020810190506200153e565b838111156200156b576000848401525b50505050565b6200157c826200169b565b810181811067ffffffffffffffff821117156200159e576200159d62001653565b5b80604052505050565b6000620015b482620014fa565b91507fffffffffffffffffffffffffffffffffffffffffffffffffffffffffffffffff821415620015ea57620015e9620015f5565b5b600182019050919050565b7f4e487b7100000000000000000000000000000000000000000000000000000000600052601160045260246000fd5b7f4e487b7100000000000000000000000000000000000000000000000000000000600052603260045260246000fd5b7f4e487b7100000000000000000000000000000000000000000000000000000000600052604160045260246000fd5b600080fd5b600080fd5b600080fd5b600080fd5b600080fd5b6000601f19601f8301169050919050565b7f6f6666736574206f7574206f6620626f756e6473000000000000000000000000600082015250565b7f4f6e6520557365722043616e2068617665206f6e6c7920312050726f66696c65600082015250565b6200170981620014ba565b81146200171557600080fd5b50565b6200172381620014fa565b81146200172f57600080fd5b5056fe60806040523480156200001157600080fd5b50604051620041c7380380620041c7833981810160405281019062000037919062000536565b846040518060400160405280600381526020017f53545800000000000000000000000000000000000000000000000000000000008152508160009080519060200190620000869291906200024d565b5080600190805190602001906200009f9291906200024d565b505050620000d4620000bf6200017f640100000000026401000000009004565b62000187640100000000026401000000009004565b8560098190555084600a9080519060200190620000f39291906200024d565b5083600b90805190602001906200010c9291906200024d565b5082600c908051906020019062000125929190620002de565b5081600d90805190602001906200013e929190620002de565b5080600e9080519060200190620001579291906200024d565b506000601060006101000a81548160ff02191690831515021790555050505050505062000849565b600033905090565b6000600760009054906101000a900473ffffffffffffffffffffffffffffffffffffffff16905081600760006101000a81548173ffffffffffffffffffffffffffffffffffffffff021916908373ffffffffffffffffffffffffffffffffffffffff1602179055508173ffffffffffffffffffffffffffffffffffffffff168173ffffffffffffffffffffffffffffffffffffffff167f8be0079c531659141344cd1fd0a4f28419497f9722a3daafe3b4186f6b6457e060405160405180910390a35050565b8280546200025b906200073b565b90600052602060002090601f0160209004810192826200027f5760008555620002cb565b82601f106200029a57805160ff1916838001178555620002cb565b82800160010185558215620002cb579182015b82811115620002ca578251825591602001919060010190620002ad565b5b509050620002da919062000345565b5090565b82805482825590600052602060002090810192821562000332579160200282015b8281111562000331578251829080519060200190620003209291906200024d565b5091602001919060010190620002ff565b5b50905062000341919062000364565b5090565b5b808211156200036057600081600090555060010162000346565b5090565b5b808211156200038857600081816200037e91906200038c565b5060010162000365565b5090565b5080546200039a906200073b565b6000825580601f10620003ae5750620003cf565b601f016020900490600052602060002090810190620003ce919062000345565b5b50565b6000620003e9620003e38462000696565b6200066d565b905080838252602082019050828560208602820111156200040f576200040e6200080a565b5b60005b858110156200046457815167ffffffffffffffff81111562000439576200043862000805565b5b808601620004488982620004ec565b8552602085019450602084019350505060018101905062000412565b5050509392505050565b6000620004856200047f84620006c5565b6200066d565b905082815260208101848484011115620004a457620004a36200080f565b5b620004b184828562000705565b509392505050565b600082601f830112620004d157620004d062000805565b5b8151620004e3848260208601620003d2565b91505092915050565b600082601f83011262000504576200050362000805565b5b8151620005168482602086016200046e565b91505092915050565b60008151905062000530816200082f565b92915050565b60008060008060008060c0878903121562000556576200055562000819565b5b60006200056689828a016200051f565b965050602087015167ffffffffffffffff8111156200058a576200058962000814565b5b6200059889828a01620004ec565b955050604087015167ffffffffffffffff811115620005bc57620005bb62000814565b5b620005ca89828a01620004ec565b945050606087015167ffffffffffffffff811115620005ee57620005ed62000814565b5b620005fc89828a01620004b9565b935050608087015167ffffffffffffffff81111562000620576200061f62000814565b5b6200062e89828a01620004b9565b92505060a087015167ffffffffffffffff81111562000652576200065162000814565b5b6200066089828a01620004ec565b9150509295509295509295565b6000620006796200068c565b905062000687828262000771565b919050565b6000604051905090565b600067ffffffffffffffff821115620006b457620006b3620007d6565b5b602082029050602081019050919050565b600067ffffffffffffffff821115620006e357620006e2620007d6565b5b620006ee826200081e565b9050602081019050919050565b6000819050919050565b60005b838110156200072557808201518184015260208101905062000708565b8381111562000735576000848401525b50505050565b600060028204905060018216806200075457607f821691505b602082108114156200076b576200076a620007a7565b5b50919050565b6200077c826200081e565b810181811067ffffffffffffffff821117156200079e576200079d620007d6565b5b80604052505050565b7f4e487b7100000000000000000000000000000000000000000000000000000000600052602260045260246000fd5b7f4e487b7100000000000000000000000000000000000000000000000000000000600052604160045260246000fd5b600080fd5b600080fd5b600080fd5b600080fd5b600080fd5b6000601f19601f8301169050919050565b6200083a81620006fb565b81146200084657600080fd5b50565b61396e80620008596000396000f3fe608060405234801561001057600080fd5b50600436106101ec576000357c0100000000000000000000000000000000000000000000000000000000900480637284e41611610121578063b88d4fde116100bf578063d32141811161008e578063d32141811461053b578063e985e9c514610559578063eb477b1614610589578063f2fde38b146105a7576101ec565b8063b88d4fde146104a3578063c6cdbe5e146104bf578063c87b56dd146104ef578063d204c45e1461051f576101ec565b80638da5cb5b116100fb5780638da5cb5b1461042d57806395d89b411461044b578063a22cb46514610469578063af640d0f14610485576101ec565b80637284e416146103c157806384856482146103df5780638cc4260b1461040f576101ec565b806342842e0e1161018e5780635600f04f116101685780635600f04f146103395780636352211e1461035757806370a0823114610387578063715018a6146103b7576101ec565b806342842e0e146102e357806349217fb0146102ff5780634db0412c1461031b576101ec565b8063095ea7b3116101ca578063095ea7b31461026f5780631868611b1461028b578063212f3a04146102a957806323b872dd146102c7576101ec565b806301ffc9a7146101f157806306fdde0314610221578063081812fc1461023f575b600080fd5b61020b60048036038101906102069190612ae8565b6105c3565b6040516102189190612f98565b60405180910390f35b6102296106a5565b6040516102369190612fb3565b60405180910390f35b61025960048036038101906102549190612b42565b610737565b6040516102669190612f0f565b60405180910390f35b61028960048036038101906102849190612a1d565b61077d565b005b610293610895565b6040516102a09190612f76565b60405180910390f35b6102b161096e565b6040516102be9190612f98565b60405180910390f35b6102e160048036038101906102dc91906128ab565b610981565b005b6102fd60048036038101906102f891906128ab565b6109e1565b005b61031960048036038101906103149190612a5d565b610a01565b005b610323610ad1565b6040516103309190612f76565b60405180910390f35b610341610baa565b60405161034e9190612fb3565b60405180910390f35b610371600480360381019061036c9190612b42565b610c38565b60405161037e9190612f0f565b60405180910390f35b6103a1600480360381019061039c919061283e565b610cbf565b6040516103ae9190613195565b60405180910390f35b6103bf610d77565b005b6103c9610d8b565b6040516103d69190612fb3565b60405180910390f35b6103f960048036038101906103f49190612b42565b610e19565b6040516104069190612fb3565b60405180910390f35b610417610ec5565b6040516104249190612fb3565b60405180910390f35b610435610f53565b6040516104429190612f0f565b60405180910390f35b610453610f7d565b6040516104609190612fb3565b60405180910390f35b610483600480360381019061047e9190612981565b61100f565b005b61048d611025565b60405161049a9190613195565b60405180910390f35b6104bd60048036038101906104b891906128fe565b61102b565b005b6104d960048036038101906104d49190612b42565b61108d565b6040516104e69190612fb3565b60405180910390f35b61050960048036038101906105049190612b42565b611139565b6040516105169190612fb3565b60405180910390f35b610539600480360381019061053491906129c1565b61114b565b005b610543611184565b6040516105509190612fb3565b60405180910390f35b610573600480360381019061056e919061286b565b611212565b6040516105809190612f98565b60405180910390f35b6105916112a6565b60405161059e9190612fb3565b60405180910390f35b6105c160048036038101906105bc919061283e565b611334565b005b60007f80ac58cd000000000000000000000000000000000000000000000000000000007bffffffffffffffffffffffffffffffffffffffffffffffffffffffff1916827bffffffffffffffffffffffffffffffffffffffffffffffffffffffff1916148061068e57507f5b5e139f000000000000000000000000000000000000000000000000000000007bffffffffffffffffffffffffffffffffffffffffffffffffffffffff1916827bffffffffffffffffffffffffffffffffffffffffffffffffffffffff1916145b8061069e575061069d826113b8565b5b9050919050565b6060600080546106b490613404565b80601f01602080910402602001604051908101604052809291908181526020018280546106e090613404565b801561072d5780601f106107025761010080835404028352916020019161072d565b820191906000526020600020905b81548152906001019060200180831161071057829003601f168201915b5050505050905090565b600061074282611422565b6004600083815260200190815260200160002060009054906101000a900473ffffffffffffffffffffffffffffffffffffffff169050919050565b600061078882610c38565b90508073ffffffffffffffffffffffffffffffffffffffff168373ffffffffffffffffffffffffffffffffffffffff1614156107f9576040517f08c379a00000000000000000000000000000000000000000000000000000000081526004016107f090613155565b60405180910390fd5b8073ffffffffffffffffffffffffffffffffffffffff1661081861146d565b73ffffffffffffffffffffffffffffffffffffffff16148061084757506108468161084161146d565b611212565b5b610886576040517f08c379a000000000000000000000000000000000000000000000000000000000815260040161087d90613175565b60405180910390fd5b6108908383611475565b505050565b6060600c805480602002602001604051908101604052809291908181526020016000905b828210156109655783829060005260206000200180546108d890613404565b80601f016020809104026020016040519081016040528092919081815260200182805461090490613404565b80156109515780601f1061092657610100808354040283529160200191610951565b820191906000526020600020905b81548152906001019060200180831161093457829003601f168201915b5050505050815260200190600101906108b9565b50505050905090565b601060009054906101000a900460ff1681565b61099261098c61146d565b8261152e565b6109d1576040517f08c379a00000000000000000000000000000000000000000000000000000000081526004016109c890612fd5565b60405180910390fd5b6109dc8383836115c3565b505050565b6109fc8383836040518060200160405280600081525061102b565b505050565b610a096118bd565b600115158315151415610a645781600f9080519060200190610a2c929190612652565b508060119080519060200190610a43929190612652565b506001601060006101000a81548160ff021916908315150217905550610acc565b60405180602001604052806000815250600f9080519060200190610a89929190612652565b506040518060200160405280600081525060119080519060200190610aaf929190612652565b506000601060006101000a81548160ff0219169083151502179055505b505050565b6060600d805480602002602001604051908101604052809291908181526020016000905b82821015610ba1578382906000526020600020018054610b1490613404565b80601f0160208091040260200160405190810160405280929190818152602001828054610b4090613404565b8015610b8d5780601f10610b6257610100808354040283529160200191610b8d565b820191906000526020600020905b815481529060010190602001808311610b7057829003601f168201915b505050505081526020019060010190610af5565b50505050905090565b600b8054610bb790613404565b80601f0160208091040260200160405190810160405280929190818152602001828054610be390613404565b8015610c305780601f10610c0557610100808354040283529160200191610c30565b820191906000526020600020905b815481529060010190602001808311610c1357829003601f168201915b505050505081565b600080610c448361193b565b9050600073ffffffffffffffffffffffffffffffffffffffff168173ffffffffffffffffffffffffffffffffffffffff161415610cb6576040517f08c379a0000000000000000000000000000000000000000000000000000000008152600401610cad90613135565b60405180910390fd5b80915050919050565b60008073ffffffffffffffffffffffffffffffffffffffff168273ffffffffffffffffffffffffffffffffffffffff161415610d30576040517f08c379a0000000000000000000000000000000000000000000000000000000008152600401610d27906130b5565b60405180910390fd5b600360008373ffffffffffffffffffffffffffffffffffffffff1673ffffffffffffffffffffffffffffffffffffffff168152602001908152602001600020549050919050565b610d7f6118bd565b610d896000611978565b565b600e8054610d9890613404565b80601f0160208091040260200160405190810160405280929190818152602001828054610dc490613404565b8015610e115780601f10610de657610100808354040283529160200191610e11565b820191906000526020600020905b815481529060010190602001808311610df457829003601f168201915b505050505081565b600c8181548110610e2957600080fd5b906000526020600020016000915090508054610e4490613404565b80601f0160208091040260200160405190810160405280929190818152602001828054610e7090613404565b8015610ebd5780601f10610e9257610100808354040283529160200191610ebd565b820191906000526020600020905b815481529060010190602001808311610ea057829003601f168201915b505050505081565b600f8054610ed290613404565b80601f0160208091040260200160405190810160405280929190818152602001828054610efe90613404565b8015610f4b5780601f10610f2057610100808354040283529160200191610f4b565b820191906000526020600020905b815481529060010190602001808311610f2e57829003601f168201915b505050505081565b6000600760009054906101000a900473ffffffffffffffffffffffffffffffffffffffff16905090565b606060018054610f8c90613404565b80601f0160208091040260200160405190810160405280929190818152602001828054610fb890613404565b80156110055780601f10610fda57610100808354040283529160200191611005565b820191906000526020600020905b815481529060010190602001808311610fe857829003601f168201915b5050505050905090565b61102161101a61146d565b8383611a3e565b5050565b60095481565b61103c61103661146d565b8361152e565b61107b576040517f08c379a000000000000000000000000000000000000000000000000000000000815260040161107290612fd5565b60405180910390fd5b61108784848484611bab565b50505050565b600d818154811061109d57600080fd5b9060005260206000200160009150905080546110b890613404565b80601f01602080910402602001604051908101604052809291908181526020018280546110e490613404565b80156111315780601f1061110657610100808354040283529160200191611131565b820191906000526020600020905b81548152906001019060200180831161111457829003601f168201915b505050505081565b606061114482611c07565b9050919050565b6111536118bd565b600061115f6008611d1a565b905061116b6008611d28565b6111758382611d3e565b61117f8183611d5c565b505050565b6011805461119190613404565b80601f01602080910402602001604051908101604052809291908181526020018280546111bd90613404565b801561120a5780601f106111df5761010080835404028352916020019161120a565b820191906000526020600020905b8154815290600101906020018083116111ed57829003601f168201915b505050505081565b6000600560008473ffffffffffffffffffffffffffffffffffffffff1673ffffffffffffffffffffffffffffffffffffffff16815260200190815260200160002060008373ffffffffffffffffffffffffffffffffffffffff1673ffffffffffffffffffffffffffffffffffffffff16815260200190815260200160002060009054906101000a900460ff16905092915050565b600a80546112b390613404565b80601f01602080910402602001604051908101604052809291908181526020018280546112df90613404565b801561132c5780601f106113015761010080835404028352916020019161132c565b820191906000526020600020905b81548152906001019060200180831161130f57829003601f168201915b505050505081565b61133c6118bd565b600073ffffffffffffffffffffffffffffffffffffffff168173ffffffffffffffffffffffffffffffffffffffff1614156113ac576040517f08c379a00000000000000000000000000000000000000000000000000000000081526004016113a390613015565b60405180910390fd5b6113b581611978565b50565b60007f01ffc9a7000000000000000000000000000000000000000000000000000000007bffffffffffffffffffffffffffffffffffffffffffffffffffffffff1916827bffffffffffffffffffffffffffffffffffffffffffffffffffffffff1916149050919050565b61142b81611dd0565b61146a576040517f08c379a000000000000000000000000000000000000000000000000000000000815260040161146190613135565b60405180910390fd5b50565b600033905090565b816004600083815260200190815260200160002060006101000a81548173ffffffffffffffffffffffffffffffffffffffff021916908373ffffffffffffffffffffffffffffffffffffffff160217905550808273ffffffffffffffffffffffffffffffffffffffff166114e883610c38565b73ffffffffffffffffffffffffffffffffffffffff167f8c5be1e5ebec7d5bd14f71427d1e84f3dd0314c0f7b2291e5b200ac8c7c3b92560405160405180910390a45050565b60008061153a83610c38565b90508073ffffffffffffffffffffffffffffffffffffffff168473ffffffffffffffffffffffffffffffffffffffff16148061157c575061157b8185611212565b5b806115ba57508373ffffffffffffffffffffffffffffffffffffffff166115a284610737565b73ffffffffffffffffffffffffffffffffffffffff16145b91505092915050565b8273ffffffffffffffffffffffffffffffffffffffff166115e382610c38565b73ffffffffffffffffffffffffffffffffffffffff1614611639576040517f08c379a000000000000000000000000000000000000000000000000000000000815260040161163090613035565b60405180910390fd5b600073ffffffffffffffffffffffffffffffffffffffff168273ffffffffffffffffffffffffffffffffffffffff1614156116a9576040517f08c379a00000000000000000000000000000000000000000000000000000000081526004016116a090613075565b60405180910390fd5b6116b68383836001611e11565b8273ffffffffffffffffffffffffffffffffffffffff166116d682610c38565b73ffffffffffffffffffffffffffffffffffffffff161461172c576040517f08c379a000000000000000000000000000000000000000000000000000000000815260040161172390613035565b60405180910390fd5b6004600082815260200190815260200160002060006101000a81549073ffffffffffffffffffffffffffffffffffffffff02191690556001600360008573ffffffffffffffffffffffffffffffffffffffff1673ffffffffffffffffffffffffffffffffffffffff168152602001908152602001600020600082825403925050819055506001600360008473ffffffffffffffffffffffffffffffffffffffff1673ffffffffffffffffffffffffffffffffffffffff16815260200190815260200160002060008282540192505081905550816002600083815260200190815260200160002060006101000a81548173ffffffffffffffffffffffffffffffffffffffff021916908373ffffffffffffffffffffffffffffffffffffffff160217905550808273ffffffffffffffffffffffffffffffffffffffff168473ffffffffffffffffffffffffffffffffffffffff167fddf252ad1be2c89b69c2b068fc378daa952ba7f163c4a11628f55a4df523b3ef60405160405180910390a46118b88383836001611f37565b505050565b6118c561146d565b73ffffffffffffffffffffffffffffffffffffffff166118e3610f53565b73ffffffffffffffffffffffffffffffffffffffff1614611939576040517f08c379a000000000000000000000000000000000000000000000000000000000815260040161193090613115565b60405180910390fd5b565b60006002600083815260200190815260200160002060009054906101000a900473ffffffffffffffffffffffffffffffffffffffff169050919050565b6000600760009054906101000a900473ffffffffffffffffffffffffffffffffffffffff16905081600760006101000a81548173ffffffffffffffffffffffffffffffffffffffff021916908373ffffffffffffffffffffffffffffffffffffffff1602179055508173ffffffffffffffffffffffffffffffffffffffff168173ffffffffffffffffffffffffffffffffffffffff167f8be0079c531659141344cd1fd0a4f28419497f9722a3daafe3b4186f6b6457e060405160405180910390a35050565b8173ffffffffffffffffffffffffffffffffffffffff168373ffffffffffffffffffffffffffffffffffffffff161415611aad576040517f08c379a0000000000000000000000000000000000000000000000000000000008152600401611aa490613095565b60405180910390fd5b80600560008573ffffffffffffffffffffffffffffffffffffffff1673ffffffffffffffffffffffffffffffffffffffff16815260200190815260200160002060008473ffffffffffffffffffffffffffffffffffffffff1673ffffffffffffffffffffffffffffffffffffffff16815260200190815260200160002060006101000a81548160ff0219169083151502179055508173ffffffffffffffffffffffffffffffffffffffff168373ffffffffffffffffffffffffffffffffffffffff167f17307eab39ab6107e8899845ad3d59bd9653f200f220920489ca2b5937696c3183604051611b9e9190612f98565b60405180910390a3505050565b611bb68484846115c3565b611bc284848484611f3d565b611c01576040517f08c379a0000000000000000000000000000000000000000000000000000000008152600401611bf890612ff5565b60405180910390fd5b50505050565b6060611c1282611422565b6000600660008481526020019081526020016000208054611c3290613404565b80601f0160208091040260200160405190810160405280929190818152602001828054611c5e90613404565b8015611cab5780601f10611c8057610100808354040283529160200191611cab565b820191906000526020600020905b815481529060010190602001808311611c8e57829003601f168201915b505050505090506000611cbc61210c565b9050600081511415611cd2578192505050611d15565b600082511115611d07578082604051602001611cef929190612eeb565b60405160208183030381529060405292505050611d15565b611d1084612123565b925050505b919050565b600081600001549050919050565b6001816000016000828254019250508190555050565b611d5882826040518060200160405280600081525061218b565b5050565b611d6582611dd0565b611da4576040517f08c379a0000000000000000000000000000000000000000000000000000000008152600401611d9b906130d5565b60405180910390fd5b80600660008481526020019081526020016000209080519060200190611dcb929190612652565b505050565b60008073ffffffffffffffffffffffffffffffffffffffff16611df28361193b565b73ffffffffffffffffffffffffffffffffffffffff1614159050919050565b6001811115611f3157600073ffffffffffffffffffffffffffffffffffffffff168473ffffffffffffffffffffffffffffffffffffffff1614611ea55780600360008673ffffffffffffffffffffffffffffffffffffffff1673ffffffffffffffffffffffffffffffffffffffff1681526020019081526020016000206000828254611e9d919061331a565b925050819055505b600073ffffffffffffffffffffffffffffffffffffffff168373ffffffffffffffffffffffffffffffffffffffff1614611f305780600360008573ffffffffffffffffffffffffffffffffffffffff1673ffffffffffffffffffffffffffffffffffffffff1681526020019081526020016000206000828254611f2891906132c4565b925050819055505b5b50505050565b50505050565b6000611f5e8473ffffffffffffffffffffffffffffffffffffffff166121e6565b156120ff578373ffffffffffffffffffffffffffffffffffffffff1663150b7a02611f8761146d565b8786866040518563ffffffff167c0100000000000000000000000000000000000000000000000000000000028152600401611fc59493929190612f2a565b602060405180830381600087803b158015611fdf57600080fd5b505af192505050801561201057506040513d601f19601f8201168201806040525081019061200d9190612b15565b60015b612093573d8060008114612040576040519150601f19603f3d011682016040523d82523d6000602084013e612045565b606091505b5060008151141561208b576040517f08c379a000000000000000000000000000000000000000000000000000000000815260040161208290612ff5565b60405180910390fd5b805181602001fd5b63150b7a027c0100000000000000000000000000000000000000000000000000000000027bffffffffffffffffffffffffffffffffffffffffffffffffffffffff1916817bffffffffffffffffffffffffffffffffffffffffffffffffffffffff191614915050612104565b600190505b949350505050565b606060405180602001604052806000815250905090565b606061212e82611422565b600061213861210c565b905060008151116121585760405180602001604052806000815250612183565b8061216284612209565b604051602001612173929190612eeb565b6040516020818303038152906040525b915050919050565b61219583836122e1565b6121a26000848484611f3d565b6121e1576040517f08c379a00000000000000000000000000000000000000000000000000000000081526004016121d890612ff5565b60405180910390fd5b505050565b6000808273ffffffffffffffffffffffffffffffffffffffff163b119050919050565b606060006001612218846124ff565b01905060008167ffffffffffffffff811115612237576122366134f4565b5b6040519080825280601f01601f1916602001820160405280156122695781602001600182028036833780820191505090505b509050600082602001820190505b6001156122d6578080600190039150507f3031323334353637383961626364656600000000000000000000000000000000600a86061a8153600a85816122c0576122bf613496565b5b04945060008514156122d1576122d6565b612277565b819350505050919050565b600073ffffffffffffffffffffffffffffffffffffffff168273ffffffffffffffffffffffffffffffffffffffff161415612351576040517f08c379a0000000000000000000000000000000000000000000000000000000008152600401612348906130f5565b60405180910390fd5b61235a81611dd0565b1561239a576040517f08c379a000000000000000000000000000000000000000000000000000000000815260040161239190613055565b60405180910390fd5b6123a8600083836001611e11565b6123b181611dd0565b156123f1576040517f08c379a00000000000000000000000000000000000000000000000000000000081526004016123e890613055565b60405180910390fd5b6001600360008473ffffffffffffffffffffffffffffffffffffffff1673ffffffffffffffffffffffffffffffffffffffff16815260200190815260200160002060008282540192505081905550816002600083815260200190815260200160002060006101000a81548173ffffffffffffffffffffffffffffffffffffffff021916908373ffffffffffffffffffffffffffffffffffffffff160217905550808273ffffffffffffffffffffffffffffffffffffffff16600073ffffffffffffffffffffffffffffffffffffffff167fddf252ad1be2c89b69c2b068fc378daa952ba7f163c4a11628f55a4df523b3ef60405160405180910390a46124fb600083836001611f37565b5050565b600080600090507a184f03e93ff9f4daa797ed6e38ed64bf6a1f010000000000000000831061255d577a184f03e93ff9f4daa797ed6e38ed64bf6a1f010000000000000000838161255357612552613496565b5b0492506040810190505b6d04ee2d6d415b85acef8100000000831061259a576d04ee2d6d415b85acef810000000083816125905761258f613496565b5b0492506020810190505b662386f26fc1000083106125c957662386f26fc1000083816125bf576125be613496565b5b0492506010810190505b6305f5e10083106125f2576305f5e10083816125e8576125e7613496565b5b0492506008810190505b612710831061261757612710838161260d5761260c613496565b5b0492506004810190505b6064831061263a57606483816126305761262f613496565b5b0492506002810190505b600a8310612649576001810190505b80915050919050565b82805461265e90613404565b90600052602060002090601f01602090048101928261268057600085556126c7565b82601f1061269957805160ff19168380011785556126c7565b828001600101855582156126c7579182015b828111156126c65782518255916020019190600101906126ab565b5b5090506126d491906126d8565b5090565b5b808211156126f15760008160009055506001016126d9565b5090565b6000612708612703846131d5565b6131b0565b90508281526020810184848401111561272457612723613528565b5b61272f8482856133c2565b509392505050565b600061274a61274584613206565b6131b0565b90508281526020810184848401111561276657612765613528565b5b6127718482856133c2565b509392505050565b600081359050612788816138dc565b92915050565b60008135905061279d816138f3565b92915050565b6000813590506127b28161390a565b92915050565b6000815190506127c78161390a565b92915050565b600082601f8301126127e2576127e1613523565b5b81356127f28482602086016126f5565b91505092915050565b600082601f8301126128105761280f613523565b5b8135612820848260208601612737565b91505092915050565b60008135905061283881613921565b92915050565b60006020828403121561285457612853613532565b5b600061286284828501612779565b91505092915050565b6000806040838503121561288257612881613532565b5b600061289085828601612779565b92505060206128a185828601612779565b9150509250929050565b6000806000606084860312156128c4576128c3613532565b5b60006128d286828701612779565b93505060206128e386828701612779565b92505060406128f486828701612829565b9150509250925092565b6000806000806080858703121561291857612917613532565b5b600061292687828801612779565b945050602061293787828801612779565b935050604061294887828801612829565b925050606085013567ffffffffffffffff8111156129695761296861352d565b5b612975878288016127cd565b91505092959194509250565b6000806040838503121561299857612997613532565b5b60006129a685828601612779565b92505060206129b78582860161278e565b9150509250929050565b600080604083850312156129d8576129d7613532565b5b60006129e685828601612779565b925050602083013567ffffffffffffffff811115612a0757612a0661352d565b5b612a13858286016127fb565b9150509250929050565b60008060408385031215612a3457612a33613532565b5b6000612a4285828601612779565b9250506020612a5385828601612829565b9150509250929050565b600080600060608486031215612a7657612a75613532565b5b6000612a848682870161278e565b935050602084013567ffffffffffffffff811115612aa557612aa461352d565b5b612ab1868287016127fb565b925050604084013567ffffffffffffffff811115612ad257612ad161352d565b5b612ade868287016127fb565b9150509250925092565b600060208284031215612afe57612afd613532565b5b6000612b0c848285016127a3565b91505092915050565b600060208284031215612b2b57612b2a613532565b5b6000612b39848285016127b8565b91505092915050565b600060208284031215612b5857612b57613532565b5b6000612b6684828501612829565b91505092915050565b6000612b7b8383612c4f565b905092915050565b612b8c8161334e565b82525050565b6000612b9d82613247565b612ba78185613275565b935083602082028501612bb985613237565b8060005b85811015612bf55784840389528151612bd68582612b6f565b9450612be183613268565b925060208a01995050600181019050612bbd565b50829750879550505050505092915050565b612c1081613360565b82525050565b6000612c2182613252565b612c2b8185613286565b9350612c3b8185602086016133d1565b612c4481613537565b840191505092915050565b6000612c5a8261325d565b612c648185613297565b9350612c748185602086016133d1565b612c7d81613537565b840191505092915050565b6000612c938261325d565b612c9d81856132a8565b9350612cad8185602086016133d1565b612cb681613537565b840191505092915050565b6000612ccc8261325d565b612cd681856132b9565b9350612ce68185602086016133d1565b80840191505092915050565b6000612cff602d836132a8565b9150612d0a82613548565b604082019050919050565b6000612d226032836132a8565b9150612d2d82613597565b604082019050919050565b6000612d456026836132a8565b9150612d50826135e6565b604082019050919050565b6000612d686025836132a8565b9150612d7382613635565b604082019050919050565b6000612d8b601c836132a8565b9150612d9682613684565b602082019050919050565b6000612dae6024836132a8565b9150612db9826136ad565b604082019050919050565b6000612dd16019836132a8565b9150612ddc826136fc565b602082019050919050565b6000612df46029836132a8565b9150612dff82613725565b604082019050919050565b6000612e17602e836132a8565b9150612e2282613774565b604082019050919050565b6000612e3a6020836132a8565b9150612e45826137c3565b602082019050919050565b6000612e5d6020836132a8565b9150612e68826137ec565b602082019050919050565b6000612e806018836132a8565b9150612e8b82613815565b602082019050919050565b6000612ea36021836132a8565b9150612eae8261383e565b604082019050919050565b6000612ec6603d836132a8565b9150612ed18261388d565b604082019050919050565b612ee5816133b8565b82525050565b6000612ef78285612cc1565b9150612f038284612cc1565b91508190509392505050565b6000602082019050612f246000830184612b83565b92915050565b6000608082019050612f3f6000830187612b83565b612f4c6020830186612b83565b612f596040830185612edc565b8181036060830152612f6b8184612c16565b905095945050505050565b60006020820190508181036000830152612f908184612b92565b905092915050565b6000602082019050612fad6000830184612c07565b92915050565b60006020820190508181036000830152612fcd8184612c88565b905092915050565b60006020820190508181036000830152612fee81612cf2565b9050919050565b6000602082019050818103600083015261300e81612d15565b9050919050565b6000602082019050818103600083015261302e81612d38565b9050919050565b6000602082019050818103600083015261304e81612d5b565b9050919050565b6000602082019050818103600083015261306e81612d7e565b9050919050565b6000602082019050818103600083015261308e81612da1565b9050919050565b600060208201905081810360008301526130ae81612dc4565b9050919050565b600060208201905081810360008301526130ce81612de7565b9050919050565b600060208201905081810360008301526130ee81612e0a565b9050919050565b6000602082019050818103600083015261310e81612e2d565b9050919050565b6000602082019050818103600083015261312e81612e50565b9050919050565b6000602082019050818103600083015261314e81612e73565b9050919050565b6000602082019050818103600083015261316e81612e96565b9050919050565b6000602082019050818103600083015261318e81612eb9565b9050919050565b60006020820190506131aa6000830184612edc565b92915050565b60006131ba6131cb565b90506131c68282613436565b919050565b6000604051905090565b600067ffffffffffffffff8211156131f0576131ef6134f4565b5b6131f982613537565b9050602081019050919050565b600067ffffffffffffffff821115613221576132206134f4565b5b61322a82613537565b9050602081019050919050565b6000819050602082019050919050565b600081519050919050565b600081519050919050565b600081519050919050565b6000602082019050919050565b600082825260208201905092915050565b600082825260208201905092915050565b600082825260208201905092915050565b600082825260208201905092915050565b600081905092915050565b60006132cf826133b8565b91506132da836133b8565b9250827fffffffffffffffffffffffffffffffffffffffffffffffffffffffffffffffff0382111561330f5761330e613467565b5b828201905092915050565b6000613325826133b8565b9150613330836133b8565b92508282101561334357613342613467565b5b828203905092915050565b600061335982613398565b9050919050565b60008115159050919050565b60007fffffffff0000000000000000000000000000000000000000000000000000000082169050919050565b600073ffffffffffffffffffffffffffffffffffffffff82169050919050565b6000819050919050565b82818337600083830152505050565b60005b838110156133ef5780820151818401526020810190506133d4565b838111156133fe576000848401525b50505050565b6000600282049050600182168061341c57607f821691505b602082108114156134305761342f6134c5565b5b50919050565b61343f82613537565b810181811067ffffffffffffffff8211171561345e5761345d6134f4565b5b80604052505050565b7f4e487b7100000000000000000000000000000000000000000000000000000000600052601160045260246000fd5b7f4e487b7100000000000000000000000000000000000000000000000000000000600052601260045260246000fd5b7f4e487b7100000000000000000000000000000000000000000000000000000000600052602260045260246000fd5b7f4e487b7100000000000000000000000000000000000000000000000000000000600052604160045260246000fd5b600080fd5b600080fd5b600080fd5b600080fd5b6000601f19601f8301169050919050565b7f4552433732313a2063616c6c6572206973206e6f7420746f6b656e206f776e6560008201527f72206f7220617070726f76656400000000000000000000000000000000000000602082015250565b7f4552433732313a207472616e7366657220746f206e6f6e20455243373231526560008201527f63656976657220696d706c656d656e7465720000000000000000000000000000602082015250565b7f4f776e61626c653a206e6577206f776e657220697320746865207a65726f206160008201527f6464726573730000000000000000000000000000000000000000000000000000602082015250565b7f4552433732313a207472616e736665722066726f6d20696e636f72726563742060008201527f6f776e6572000000000000000000000000000000000000000000000000000000602082015250565b7f4552433732313a20746f6b656e20616c7265616479206d696e74656400000000600082015250565b7f4552433732313a207472616e7366657220746f20746865207a65726f2061646460008201527f7265737300000000000000000000000000000000000000000000000000000000602082015250565b7f4552433732313a20617070726f766520746f2063616c6c657200000000000000600082015250565b7f4552433732313a2061646472657373207a65726f206973206e6f74206120766160008201527f6c6964206f776e65720000000000000000000000000000000000000000000000602082015250565b7f45524337323155524953746f726167653a2055524920736574206f66206e6f6e60008201527f6578697374656e7420746f6b656e000000000000000000000000000000000000602082015250565b7f4552433732313a206d696e7420746f20746865207a65726f2061646472657373600082015250565b7f4f776e61626c653a2063616c6c6572206973206e6f7420746865206f776e6572600082015250565b7f4552433732313a20696e76616c696420746f6b656e2049440000000000000000600082015250565b7f4552433732313a20617070726f76616c20746f2063757272656e74206f776e6560008201527f7200000000000000000000000000000000000000000000000000000000000000602082015250565b7f4552433732313a20617070726f76652063616c6c6572206973206e6f7420746f60008201527f6b656e206f776e6572206f7220617070726f76656420666f7220616c6c000000602082015250565b6138e58161334e565b81146138f057600080fd5b50565b6138fc81613360565b811461390757600080fd5b50565b6139138161336c565b811461391e57600080fd5b50565b61392a816133b8565b811461393557600080fd5b5056fea2646970667358221220167ea2aa590a59b3cb4db259e4b256994ac779e697e98c5f0c45c97f016f78e664736f6c63430008060033a264697066735822122003867cdc1e095f38cc69b65a11221e52d08d8a2ee7be54ba29f37d1df195c63964736f6c63430008060033",
  "immutableReferences": {},
  "source": "// SPDX-License-Identifier: MIT\r\npragma solidity ^0.8.6;\r\n\r\nimport \"./Streamx.sol\";\r\n\r\ncontract StreamxFactory {\r\n  \r\n  Streamx[] private _streamers;\r\n\r\n  struct Item {\r\n        uint256 id;\r\n        address owner;\r\n        address contractaddress;\r\n    }\r\n  mapping(uint256 => Item) public items;\r\n\r\n  event StreamerCreated(Streamx indexed streamer, address indexed owner);\r\n  \r\n  uint256 constant maxLimit = 20;\r\n\r\n  uint256 public currentId;\r\n  function _checkstatus(address _owner) internal view returns( bool value){\r\n        uint256 totalItems = currentId;\r\n        value=true;\r\n        for (uint i = 0; i < totalItems; i++) {\r\n            if(items[i].owner == _owner){\r\n                value=false;\r\n            }\r\n        }\r\n        return value;\r\n    }\r\n  function createStreamer(\r\n    string memory name,\r\n    string memory url,\r\n    string[] memory images,\r\n    string[] memory categories,\r\n    string memory description\r\n  ) public {\r\n    require(_checkstatus(msg.sender),\"One User Can have only 1 Profile\");\r\n    Streamx streamer =\r\n      new Streamx(currentId, name, url, images, categories, description);\r\n    streamer.transferOwnership(msg.sender);\r\n    items[currentId] = Item(currentId, msg.sender, address(streamer));\r\n    _streamers.push(streamer);\r\n    currentId += 1;\r\n    emit StreamerCreated(streamer, msg.sender);\r\n  }\r\n\r\n  function streamersCount() public view returns (uint256) {\r\n    return _streamers.length;\r\n  }\r\n\r\n  function streamers(uint256 limit, uint256 offset)\r\n    public\r\n    view\r\n    returns (Streamx[] memory coll)\r\n  {\r\n    require(offset <= streamersCount(), \"offset out of bounds\");\r\n    uint256 size = streamersCount() - offset;\r\n    size = size < limit ? size : limit;\r\n    size = size < maxLimit ? size : maxLimit;\r\n    coll = new Streamx[](size);\r\n\r\n    for (uint256 i = 0; i < size; i++) {\r\n      coll[i] = _streamers[offset + i];\r\n    }\r\n\r\n    return coll;\r\n  }\r\n   function getOwnedItems(address _owner) external view returns(Item[] memory nfts){\r\n        uint256 totalItems = currentId;\r\n        nfts = new Item[](totalItems);\r\n        for (uint i = 0; i < totalItems; i++) {\r\n            if(items[i].owner == _owner){\r\n                Item storage item = items[i];\r\n                nfts[i] = item;\r\n            }\r\n        }\r\n        return nfts;\r\n    }\r\n     function checkstatus(address _owner) external view returns( bool value){\r\n        uint256 totalItems = currentId;\r\n        value=true;\r\n        for (uint i = 0; i < totalItems; i++) {\r\n            if(items[i].owner == _owner){\r\n                value=false;\r\n            }\r\n        }\r\n        return value;\r\n    }\r\n}\r\n",
  "sourcePath": "/home/kunaldawar/streamx/smartcontract/contracts/StreamxFactory.sol",
  "compiler": {
    "name": "solc",
    "version": "0.8.6+commit.11564f7e.Linux.g++"
  },
  "schemaVersion": "3.4.10",
  "updatedAt": "2022-11-23T11:59:54.712Z",
  "networkType": "ethereum",
  "devdoc": {
    "kind": "dev",
    "methods": {},
    "version": 1
  },
  "userdoc": {
    "kind": "user",
    "methods": {},
    "version": 1
  }
}